{
	"data": {
		"bytecode": {
			"linkReferences": {},
			"object": "608060405260326001553480156013575f5ffd5b5061036d806100215f395ff3fe608060405234801561000f575f5ffd5b506004361061003f575f3560e01c806302a251a31461004357806349c2a1a614610061578063607223d014610091575b5f5ffd5b61004b6100af565b60405161005891906100f7565b60405180910390f35b61007b6004803603810190610076919061025d565b6100b5565b60405161008891906100f7565b60405180910390f35b6100996100bb565b6040516100a6919061031e565b60405180910390f35b60015481565b5f919050565b5f5f9054906101000a900473ffffffffffffffffffffffffffffffffffffffff1681565b5f819050919050565b6100f1816100df565b82525050565b5f60208201905061010a5f8301846100e8565b92915050565b5f604051905090565b5f5ffd5b5f5ffd5b5f5ffd5b5f5ffd5b5f601f19601f8301169050919050565b7f4e487b71000000000000000000000000000000000000000000000000000000005f52604160045260245ffd5b61016f82610129565b810181811067ffffffffffffffff8211171561018e5761018d610139565b5b80604052505050565b5f6101a0610110565b90506101ac8282610166565b919050565b5f67ffffffffffffffff8211156101cb576101ca610139565b5b6101d482610129565b9050602081019050919050565b828183375f83830152505050565b5f6102016101fc846101b1565b610197565b90508281526020810184848401111561021d5761021c610125565b5b6102288482856101e1565b509392505050565b5f82601f83011261024457610243610121565b5b81356102548482602086016101ef565b91505092915050565b5f6020828403121561027257610271610119565b5b5f82013567ffffffffffffffff81111561028f5761028e61011d565b5b61029b84828501610230565b91505092915050565b5f73ffffffffffffffffffffffffffffffffffffffff82169050919050565b5f819050919050565b5f6102e66102e16102dc846102a4565b6102c3565b6102a4565b9050919050565b5f6102f7826102cc565b9050919050565b5f610308826102ed565b9050919050565b610318816102fe565b82525050565b5f6020820190506103315f83018461030f565b9291505056fea2646970667358221220d7b62eb9fa81f66fea7a3de1588539cd86b6fd7f7df1863c59699579c59ded7764736f6c634300081d0033",
			"opcodes": "PUSH1 0x80 PUSH1 0x40 MSTORE PUSH1 0x32 PUSH1 0x1 SSTORE CALLVALUE DUP1 ISZERO PUSH1 0x13 JUMPI PUSH0 PUSH0 REVERT JUMPDEST POP PUSH2 0x36D DUP1 PUSH2 0x21 PUSH0 CODECOPY PUSH0 RETURN INVALID PUSH1 0x80 PUSH1 0x40 MSTORE CALLVALUE DUP1 ISZERO PUSH2 0xF JUMPI PUSH0 PUSH0 REVERT JUMPDEST POP PUSH1 0x4 CALLDATASIZE LT PUSH2 0x3F JUMPI PUSH0 CALLDATALOAD PUSH1 0xE0 SHR DUP1 PUSH4 0x2A251A3 EQ PUSH2 0x43 JUMPI DUP1 PUSH4 0x49C2A1A6 EQ PUSH2 0x61 JUMPI DUP1 PUSH4 0x607223D0 EQ PUSH2 0x91 JUMPI JUMPDEST PUSH0 PUSH0 REVERT JUMPDEST PUSH2 0x4B PUSH2 0xAF JUMP JUMPDEST PUSH1 0x40 MLOAD PUSH2 0x58 SWAP2 SWAP1 PUSH2 0xF7 JUMP JUMPDEST PUSH1 0x40 MLOAD DUP1 SWAP2 SUB SWAP1 RETURN JUMPDEST PUSH2 0x7B PUSH1 0x4 DUP1 CALLDATASIZE SUB DUP2 ADD SWAP1 PUSH2 0x76 SWAP2 SWAP1 PUSH2 0x25D JUMP JUMPDEST PUSH2 0xB5 JUMP JUMPDEST PUSH1 0x40 MLOAD PUSH2 0x88 SWAP2 SWAP1 PUSH2 0xF7 JUMP JUMPDEST PUSH1 0x40 MLOAD DUP1 SWAP2 SUB SWAP1 RETURN JUMPDEST PUSH2 0x99 PUSH2 0xBB JUMP JUMPDEST PUSH1 0x40 MLOAD PUSH2 0xA6 SWAP2 SWAP1 PUSH2 0x31E JUMP JUMPDEST PUSH1 0x40 MLOAD DUP1 SWAP2 SUB SWAP1 RETURN JUMPDEST PUSH1 0x1 SLOAD DUP2 JUMP JUMPDEST PUSH0 SWAP2 SWAP1 POP JUMP JUMPDEST PUSH0 PUSH0 SWAP1 SLOAD SWAP1 PUSH2 0x100 EXP SWAP1 DIV PUSH20 0xFFFFFFFFFFFFFFFFFFFFFFFFFFFFFFFFFFFFFFFF AND DUP2 JUMP JUMPDEST PUSH0 DUP2 SWAP1 POP SWAP2 SWAP1 POP JUMP JUMPDEST PUSH2 0xF1 DUP2 PUSH2 0xDF JUMP JUMPDEST DUP3 MSTORE POP POP JUMP JUMPDEST PUSH0 PUSH1 0x20 DUP3 ADD SWAP1 POP PUSH2 0x10A PUSH0 DUP4 ADD DUP5 PUSH2 0xE8 JUMP JUMPDEST SWAP3 SWAP2 POP POP JUMP JUMPDEST PUSH0 PUSH1 0x40 MLOAD SWAP1 POP SWAP1 JUMP JUMPDEST PUSH0 PUSH0 REVERT JUMPDEST PUSH0 PUSH0 REVERT JUMPDEST PUSH0 PUSH0 REVERT JUMPDEST PUSH0 PUSH0 REVERT JUMPDEST PUSH0 PUSH1 0x1F NOT PUSH1 0x1F DUP4 ADD AND SWAP1 POP SWAP2 SWAP1 POP JUMP JUMPDEST PUSH32 0x4E487B7100000000000000000000000000000000000000000000000000000000 PUSH0 MSTORE PUSH1 0x41 PUSH1 0x4 MSTORE PUSH1 0x24 PUSH0 REVERT JUMPDEST PUSH2 0x16F DUP3 PUSH2 0x129 JUMP JUMPDEST DUP2 ADD DUP2 DUP2 LT PUSH8 0xFFFFFFFFFFFFFFFF DUP3 GT OR ISZERO PUSH2 0x18E JUMPI PUSH2 0x18D PUSH2 0x139 JUMP JUMPDEST JUMPDEST DUP1 PUSH1 0x40 MSTORE POP POP POP JUMP JUMPDEST PUSH0 PUSH2 0x1A0 PUSH2 0x110 JUMP JUMPDEST SWAP1 POP PUSH2 0x1AC DUP3 DUP3 PUSH2 0x166 JUMP JUMPDEST SWAP2 SWAP1 POP JUMP JUMPDEST PUSH0 PUSH8 0xFFFFFFFFFFFFFFFF DUP3 GT ISZERO PUSH2 0x1CB JUMPI PUSH2 0x1CA PUSH2 0x139 JUMP JUMPDEST JUMPDEST PUSH2 0x1D4 DUP3 PUSH2 0x129 JUMP JUMPDEST SWAP1 POP PUSH1 0x20 DUP2 ADD SWAP1 POP SWAP2 SWAP1 POP JUMP JUMPDEST DUP3 DUP2 DUP4 CALLDATACOPY PUSH0 DUP4 DUP4 ADD MSTORE POP POP POP JUMP JUMPDEST PUSH0 PUSH2 0x201 PUSH2 0x1FC DUP5 PUSH2 0x1B1 JUMP JUMPDEST PUSH2 0x197 JUMP JUMPDEST SWAP1 POP DUP3 DUP2 MSTORE PUSH1 0x20 DUP2 ADD DUP5 DUP5 DUP5 ADD GT ISZERO PUSH2 0x21D JUMPI PUSH2 0x21C PUSH2 0x125 JUMP JUMPDEST JUMPDEST PUSH2 0x228 DUP5 DUP3 DUP6 PUSH2 0x1E1 JUMP JUMPDEST POP SWAP4 SWAP3 POP POP POP JUMP JUMPDEST PUSH0 DUP3 PUSH1 0x1F DUP4 ADD SLT PUSH2 0x244 JUMPI PUSH2 0x243 PUSH2 0x121 JUMP JUMPDEST JUMPDEST DUP2 CALLDATALOAD PUSH2 0x254 DUP5 DUP3 PUSH1 0x20 DUP7 ADD PUSH2 0x1EF JUMP JUMPDEST SWAP2 POP POP SWAP3 SWAP2 POP POP JUMP JUMPDEST PUSH0 PUSH1 0x20 DUP3 DUP5 SUB SLT ISZERO PUSH2 0x272 JUMPI PUSH2 0x271 PUSH2 0x119 JUMP JUMPDEST JUMPDEST PUSH0 DUP3 ADD CALLDATALOAD PUSH8 0xFFFFFFFFFFFFFFFF DUP2 GT ISZERO PUSH2 0x28F JUMPI PUSH2 0x28E PUSH2 0x11D JUMP JUMPDEST JUMPDEST PUSH2 0x29B DUP5 DUP3 DUP6 ADD PUSH2 0x230 JUMP JUMPDEST SWAP2 POP POP SWAP3 SWAP2 POP POP JUMP JUMPDEST PUSH0 PUSH20 0xFFFFFFFFFFFFFFFFFFFFFFFFFFFFFFFFFFFFFFFF DUP3 AND SWAP1 POP SWAP2 SWAP1 POP JUMP JUMPDEST PUSH0 DUP2 SWAP1 POP SWAP2 SWAP1 POP JUMP JUMPDEST PUSH0 PUSH2 0x2E6 PUSH2 0x2E1 PUSH2 0x2DC DUP5 PUSH2 0x2A4 JUMP JUMPDEST PUSH2 0x2C3 JUMP JUMPDEST PUSH2 0x2A4 JUMP JUMPDEST SWAP1 POP SWAP2 SWAP1 POP JUMP JUMPDEST PUSH0 PUSH2 0x2F7 DUP3 PUSH2 0x2CC JUMP JUMPDEST SWAP1 POP SWAP2 SWAP1 POP JUMP JUMPDEST PUSH0 PUSH2 0x308 DUP3 PUSH2 0x2ED JUMP JUMPDEST SWAP1 POP SWAP2 SWAP1 POP JUMP JUMPDEST PUSH2 0x318 DUP2 PUSH2 0x2FE JUMP JUMPDEST DUP3 MSTORE POP POP JUMP JUMPDEST PUSH0 PUSH1 0x20 DUP3 ADD SWAP1 POP PUSH2 0x331 PUSH0 DUP4 ADD DUP5 PUSH2 0x30F JUMP JUMPDEST SWAP3 SWAP2 POP POP JUMP INVALID LOG2 PUSH5 0x6970667358 0x22 SLT KECCAK256 0xD7 0xB6 0x2E 0xB9 STATICCALL DUP2 0xF6 PUSH16 0xEA7A3DE1588539CD86B6FD7F7DF1863C MSIZE PUSH10 0x9579C59DED7764736F6C PUSH4 0x4300081D STOP CALLER "
		},
		"gasEstimates": {
			"creation": {
				"codeDepositCost": "175400",
				"executionCost": "22324",
				"totalCost": "197724"
			},
			"external": {
				"createProposal(string)": "infinite",
				"systemtoken()": "infinite",
				"votingPeriod()": "2403"
			}
		},
		"methodIdentifiers": {
			"createProposal(string)": "49c2a1a6",
			"systemtoken()": "607223d0",
			"votingPeriod()": "02a251a3"
		}
	},
	"abi": [
		{
			"inputs": [
				{
					"internalType": "string",
					"name": "_description",
					"type": "string"
				}
			],
			"name": "createProposal",
			"outputs": [
				{
					"internalType": "uint256",
					"name": "",
					"type": "uint256"
				}
			],
			"stateMutability": "nonpayable",
			"type": "function"
		},
		{
			"inputs": [],
			"name": "systemtoken",
			"outputs": [
				{
					"internalType": "contract SystemToken",
					"name": "",
					"type": "address"
				}
			],
			"stateMutability": "view",
			"type": "function"
		},
		{
			"inputs": [],
			"name": "votingPeriod",
			"outputs": [
				{
					"internalType": "uint256",
					"name": "",
					"type": "uint256"
				}
			],
			"stateMutability": "view",
			"type": "function"
		}
	]
}