{
	"data": {
		"bytecode": {
			"linkReferences": {},
			"object": "608060405234801561000f575f5ffd5b50604051613503380380613503833981810160405281019061003191906102fe565b825f5f6101000a81548173ffffffffffffffffffffffffffffffffffffffff021916908373ffffffffffffffffffffffffffffffffffffffff1602179055508160015f6101000a81548173ffffffffffffffffffffffffffffffffffffffff021916908373ffffffffffffffffffffffffffffffffffffffff1602179055505f5f90505b815181101561013a57600160045f8484815181106100d6576100d561036a565b5b602002602001015173ffffffffffffffffffffffffffffffffffffffff1673ffffffffffffffffffffffffffffffffffffffff1681526020019081526020015f205f6101000a81548160ff02191690831515021790555080806001019150506100b5565b50505050610397565b5f604051905090565b5f5ffd5b5f5ffd5b5f73ffffffffffffffffffffffffffffffffffffffff82169050919050565b5f61017d82610154565b9050919050565b61018d81610173565b8114610197575f5ffd5b50565b5f815190506101a881610184565b92915050565b5f5ffd5b5f601f19601f8301169050919050565b7f4e487b71000000000000000000000000000000000000000000000000000000005f52604160045260245ffd5b6101f8826101b2565b810181811067ffffffffffffffff82111715610217576102166101c2565b5b80604052505050565b5f610229610143565b905061023582826101ef565b919050565b5f67ffffffffffffffff821115610254576102536101c2565b5b602082029050602081019050919050565b5f5ffd5b5f61027b6102768461023a565b610220565b9050808382526020820190506020840283018581111561029e5761029d610265565b5b835b818110156102c757806102b3888261019a565b8452602084019350506020810190506102a0565b5050509392505050565b5f82601f8301126102e5576102e46101ae565b5b81516102f5848260208601610269565b91505092915050565b5f5f5f606084860312156103155761031461014c565b5b5f6103228682870161019a565b93505060206103338682870161019a565b925050604084015167ffffffffffffffff81111561035457610353610150565b5b610360868287016102d1565b9150509250925092565b7f4e487b71000000000000000000000000000000000000000000000000000000005f52603260045260245ffd5b61315f806103a45f395ff3fe608060405260043610610090575f3560e01c8063ab89437c11610058578063ab89437c146101ac578063c7f758a8146101e8578063d46a5d7e1461022b578063da35c66414610253578063fe0d94c11461027d57610090565b806343859632146100945780636e5e13d2146100d05780637ec946251461010c5780638259d55314610148578063959068ea14610170575b5f5ffd5b34801561009f575f5ffd5b506100ba60048036038101906100b59190611c1b565b610299565b6040516100c79190611c73565b60405180910390f35b3480156100db575f5ffd5b506100f660048036038101906100f19190611c1b565b6102fe565b6040516101039190611c9b565b60405180910390f35b348015610117575f5ffd5b50610132600480360381019061012d9190611e36565b61031e565b60405161013f9190611c9b565b60405180910390f35b348015610153575f5ffd5b5061016e60048036038101906101699190611edb565b6106ef565b005b34801561017b575f5ffd5b5061019660048036038101906101919190611f06565b610c26565b6040516101a39190611c73565b60405180910390f35b3480156101b7575f5ffd5b506101d260048036038101906101cd9190611f31565b610c43565b6040516101df9190611f7e565b60405180910390f35b3480156101f3575f5ffd5b5061020e60048036038101906102099190611edb565b610c8b565b60405161022298979695949392919061206a565b60405180910390f35b348015610236575f5ffd5b50610251600480360381019061024c9190612117565b610dc8565b005b34801561025e575f5ffd5b50610267611320565b6040516102749190611c9b565b60405180910390f35b61029760048036038101906102929190611edb565b611326565b005b5f60035f8481526020019081526020015f206008015f8373ffffffffffffffffffffffffffffffffffffffff1673ffffffffffffffffffffffffffffffffffffffff1681526020019081526020015f205f9054906101000a900460ff16905092915050565b6006602052815f5260405f20602052805f5260405f205f91509150505481565b5f60045f3373ffffffffffffffffffffffffffffffffffffffff1673ffffffffffffffffffffffffffffffffffffffff1681526020019081526020015f205f9054906101000a900460ff166103a8576040517f08c379a000000000000000000000000000000000000000000000000000000000815260040161039f906121b1565b60405180910390fd5b5f83116103ea576040517f08c379a00000000000000000000000000000000000000000000000000000000081526004016103e190612219565b60405180910390fd5b5f87511161042d576040517f08c379a000000000000000000000000000000000000000000000000000000000815260040161042490612281565b60405180910390fd5b5f60025f815480929190610440906122cc565b9190505590505f60035f8381526020019081526020015f20905088815f01908161046a9190612510565b5087816005015f6101000a81548160ff0219169083600581111561049157610490611ff7565b5b0217905550868160050160016101000a81548160ff021916908360028111156104bd576104bc611ff7565b5b0217905550858160050160036101000a81548173ffffffffffffffffffffffffffffffffffffffff021916908373ffffffffffffffffffffffffffffffffffffffff16021790555083816007018190555033816006015f6101000a81548173ffffffffffffffffffffffffffffffffffffffff021916908373ffffffffffffffffffffffffffffffffffffffff1602179055505f600581111561056357610562611ff7565b5b88600581111561057657610575611ff7565b5b14806105a657506001600581111561059157610590611ff7565b5b8860058111156105a4576105a3611ff7565b5b145b15610616576002808111156105be576105bd611ff7565b5b8760028111156105d1576105d0611ff7565b5b14610611576040517f08c379a00000000000000000000000000000000000000000000000000000000081526004016106089061264f565b60405180910390fd5b61067d565b60028081111561062957610628611ff7565b5b87600281111561063c5761063b611ff7565b5b0361067c576040517f08c379a0000000000000000000000000000000000000000000000000000000008152600401610673906126dd565b60405180910390fd5b5b428160030181905550603c8561069391906126fb565b4261069e919061273c565b8160040181905550817f2d6a2a1a504050a1fa6107e44f49971fd89dbe544b433d65f1c572ce5fa3b7d1898b6040516106d892919061276f565b60405180910390a281925050509695505050505050565b60045f3373ffffffffffffffffffffffffffffffffffffffff1673ffffffffffffffffffffffffffffffffffffffff1681526020019081526020015f205f9054906101000a900460ff16610778576040517f08c379a000000000000000000000000000000000000000000000000000000000815260040161076f906121b1565b60405180910390fd5b5f60035f8381526020019081526020015f209050806006015f9054906101000a900473ffffffffffffffffffffffffffffffffffffffff1673ffffffffffffffffffffffffffffffffffffffff163373ffffffffffffffffffffffffffffffffffffffff161461081d576040517f08c379a0000000000000000000000000000000000000000000000000000000008152600401610814906127e7565b60405180910390fd5b8060040154421115610864576040517f08c379a000000000000000000000000000000000000000000000000000000000815260040161085b9061284f565b60405180910390fd5b8060050160029054906101000a900460ff16156108b6576040517f08c379a00000000000000000000000000000000000000000000000000000000081526004016108ad906128dd565b60405180910390fd5b60018160050160026101000a81548160ff0219169083151502179055505f60055f8481526020019081526020015f2080548060200260200160405190810160405280929190818152602001828054801561096257602002820191905f5260205f20905b815f9054906101000a900473ffffffffffffffffffffffffffffffffffffffff1673ffffffffffffffffffffffffffffffffffffffff1681526020019060010190808311610919575b505050505090505f5f90505b8151811015610c20575f82828151811061098b5761098a6128fb565b5b602002602001015190505f60065f8781526020019081526020015f205f8373ffffffffffffffffffffffffffffffffffffffff1673ffffffffffffffffffffffffffffffffffffffff1681526020019081526020015f205490505f811115610c11575f60045f8473ffffffffffffffffffffffffffffffffffffffff1673ffffffffffffffffffffffffffffffffffffffff1681526020019081526020015f205f9054906101000a900460ff1615610adf575f5f9054906101000a900473ffffffffffffffffffffffffffffffffffffffff1673ffffffffffffffffffffffffffffffffffffffff1663a9059cbb84846040518363ffffffff1660e01b8152600401610a98929190612928565b6020604051808303815f875af1158015610ab4573d5f5f3e3d5ffd5b505050506040513d601f19601f82011682018060405250810190610ad89190612963565b9050610b7e565b60015f9054906101000a900473ffffffffffffffffffffffffffffffffffffffff1673ffffffffffffffffffffffffffffffffffffffff1663a9059cbb84846040518363ffffffff1660e01b8152600401610b3b929190612928565b6020604051808303815f875af1158015610b57573d5f5f3e3d5ffd5b505050506040513d601f19601f82011682018060405250810190610b7b9190612963565b90505b80610bbe576040517f08c379a0000000000000000000000000000000000000000000000000000000008152600401610bb5906129d8565b60405180910390fd5b5f60065f8981526020019081526020015f205f8573ffffffffffffffffffffffffffffffffffffffff1673ffffffffffffffffffffffffffffffffffffffff1681526020019081526020015f2081905550505b5050808060010191505061096e565b50505050565b6004602052805f5260405f205f915054906101000a900460ff1681565b6005602052815f5260405f208181548110610c5c575f80fd5b905f5260205f20015f915091509054906101000a900473ffffffffffffffffffffffffffffffffffffffff1681565b60605f5f5f5f5f5f5f5f60035f8b81526020019081526020015f2090505f5f5f8360040154421015610ce857428460040154610cc791906129f6565b9250603c83610cd69190612a56565b9050603c83610ce59190612a86565b91505b835f018460070154856001015486600201548585896005015f9054906101000a900460ff168a60050160029054906101000a900460ff16878054610d2b90612340565b80601f0160208091040260200160405190810160405280929190818152602001828054610d5790612340565b8015610da25780601f10610d7957610100808354040283529160200191610da2565b820191905f5260205f20905b815481529060010190602001808311610d8557829003601f168201915b505050505097509b509b509b509b509b509b509b509b5050505050919395975091939597565b5f60035f8581526020019081526020015f2090508060030154421015610e23576040517f08c379a0000000000000000000000000000000000000000000000000000000008152600401610e1a90612b00565b60405180910390fd5b8060040154421115610e6a576040517f08c379a0000000000000000000000000000000000000000000000000000000008152600401610e6190612b68565b60405180910390fd5b806008015f3373ffffffffffffffffffffffffffffffffffffffff1673ffffffffffffffffffffffffffffffffffffffff1681526020019081526020015f205f9054906101000a900460ff1615610ef6576040517f08c379a0000000000000000000000000000000000000000000000000000000008152600401610eed90612bd0565b60405180910390fd5b5f8211610f38576040517f08c379a0000000000000000000000000000000000000000000000000000000008152600401610f2f90612c38565b60405180910390fd5b5f60045f3373ffffffffffffffffffffffffffffffffffffffff1673ffffffffffffffffffffffffffffffffffffffff1681526020019081526020015f205f9054906101000a900460ff161561107e576003831015610fcc576040517f08c379a0000000000000000000000000000000000000000000000000000000008152600401610fc390612ca0565b60405180910390fd5b5f5f9054906101000a900473ffffffffffffffffffffffffffffffffffffffff1673ffffffffffffffffffffffffffffffffffffffff166323b872dd3330866040518463ffffffff1660e01b815260040161102993929190612cbe565b6020604051808303815f875af1158015611045573d5f5f3e3d5ffd5b505050506040513d601f19601f820116820180604052508101906110699190612963565b506003836110779190612a56565b9050611171565b60068310156110c2576040517f08c379a00000000000000000000000000000000000000000000000000000000081526004016110b990612d3d565b60405180910390fd5b60015f9054906101000a900473ffffffffffffffffffffffffffffffffffffffff1673ffffffffffffffffffffffffffffffffffffffff166323b872dd3330866040518463ffffffff1660e01b815260040161112093929190612cbe565b6020604051808303815f875af115801561113c573d5f5f3e3d5ffd5b505050506040513d601f19601f820116820180604052508101906111609190612963565b5060068361116e9190612a56565b90505b60055f8681526020019081526020015f2033908060018154018082558091505060019003905f5260205f20015f9091909190916101000a81548173ffffffffffffffffffffffffffffffffffffffff021916908373ffffffffffffffffffffffffffffffffffffffff1602179055508260065f8781526020019081526020015f205f3373ffffffffffffffffffffffffffffffffffffffff1673ffffffffffffffffffffffffffffffffffffffff1681526020019081526020015f208190555083156112565780826001015f82825461124a919061273c565b92505081905550611271565b80826002015f828254611269919061273c565b925050819055505b6001826008015f3373ffffffffffffffffffffffffffffffffffffffff1673ffffffffffffffffffffffffffffffffffffffff1681526020019081526020015f205f6101000a81548160ff021916908315150217905550843373ffffffffffffffffffffffffffffffffffffffff167f877856338e13f63d0c36822ff0ef736b80934cd90574a3a5bc9262c39d217c468684604051611311929190612d5b565b60405180910390a35050505050565b60025481565b5f60035f8381526020019081526020015f20905080600401544211611380576040517f08c379a000000000000000000000000000000000000000000000000000000000815260040161137790612dcc565b60405180910390fd5b8060050160029054906101000a900460ff16156113d2576040517f08c379a00000000000000000000000000000000000000000000000000000000081526004016113c990612e34565b60405180910390fd5b806002015481600101541161141c576040517f08c379a000000000000000000000000000000000000000000000000000000000815260040161141390612ec2565b60405180910390fd5b61142582611662565b611464576040517f08c379a000000000000000000000000000000000000000000000000000000000815260040161145b90612f2a565b60405180910390fd5b60018160050160026101000a81548160ff0219169083151502179055505f600581111561149457611493611ff7565b5b816005015f9054906101000a900460ff1660058111156114b7576114b6611ff7565b5b14806114f75750600160058111156114d2576114d1611ff7565b5b816005015f9054906101000a900460ff1660058111156114f5576114f4611ff7565b5b145b1561150a57611505816117b0565b611631565b6002600581111561151e5761151d611ff7565b5b816005015f9054906101000a900460ff16600581111561154157611540611ff7565b5b036115545761154f8161195c565b611630565b6003600581111561156857611567611ff7565b5b816005015f9054906101000a900460ff16600581111561158b5761158a611ff7565b5b0361159e5761159981611a6a565b61162f565b600460058111156115b2576115b1611ff7565b5b816005015f9054906101000a900460ff1660058111156115d5576115d4611ff7565b5b036115e8576115e381611b77565b61162e565b6005808111156115fb576115fa611ff7565b5b816005015f9054906101000a900460ff16600581111561161e5761161d611ff7565b5b0361162d5761162c81611b7a565b5b5b5b5b5b817f712ae1383f79ac853f8d882153778e0260ef8f03b504e2866e0593e04d2b291f60405160405180910390a25050565b5f5f60035f8481526020019081526020015f2090505f8160020154826001015461168c919061273c565b90505f810361169f575f925050506117ab565b5f60028111156116b2576116b1611ff7565b5b8260050160019054906101000a900460ff1660028111156116d6576116d5611ff7565b5b036116ef578160020154826001015411925050506117ab565b6001600281111561170357611702611ff7565b5b8260050160019054906101000a900460ff16600281111561172757611726611ff7565b5b0361175557600360028261173b91906126fb565b6117459190612a56565b82600101541015925050506117ab565b60028081111561176857611767611ff7565b5b8260050160019054906101000a900460ff16600281111561178c5761178b611ff7565b5b036117a5578160020154826001015411925050506117ab565b5f925050505b919050565b5f73ffffffffffffffffffffffffffffffffffffffff168160050160039054906101000a900473ffffffffffffffffffffffffffffffffffffffff1673ffffffffffffffffffffffffffffffffffffffff1603611842576040517f08c379a000000000000000000000000000000000000000000000000000000000815260040161183990612f92565b60405180910390fd5b5f816007015411611888576040517f08c379a000000000000000000000000000000000000000000000000000000000815260040161187f90612ffa565b60405180910390fd5b5f8160050160039054906101000a900473ffffffffffffffffffffffffffffffffffffffff1673ffffffffffffffffffffffffffffffffffffffff1682600701546040516118d590613045565b5f6040518083038185875af1925050503d805f811461190f576040519150601f19603f3d011682016040523d82523d5f602084013e611914565b606091505b5050905080611958576040517f08c379a000000000000000000000000000000000000000000000000000000000815260040161194f906130a3565b60405180910390fd5b5050565b5f73ffffffffffffffffffffffffffffffffffffffff168160050160039054906101000a900473ffffffffffffffffffffffffffffffffffffffff1673ffffffffffffffffffffffffffffffffffffffff16036119ee576040517f08c379a00000000000000000000000000000000000000000000000000000000081526004016119e59061310b565b60405180910390fd5b600160045f8360050160039054906101000a900473ffffffffffffffffffffffffffffffffffffffff1673ffffffffffffffffffffffffffffffffffffffff1673ffffffffffffffffffffffffffffffffffffffff1681526020019081526020015f205f6101000a81548160ff02191690831515021790555050565b5f73ffffffffffffffffffffffffffffffffffffffff168160050160039054906101000a900473ffffffffffffffffffffffffffffffffffffffff1673ffffffffffffffffffffffffffffffffffffffff1603611afc576040517f08c379a0000000000000000000000000000000000000000000000000000000008152600401611af39061310b565b60405180910390fd5b5f60045f8360050160039054906101000a900473ffffffffffffffffffffffffffffffffffffffff1673ffffffffffffffffffffffffffffffffffffffff1673ffffffffffffffffffffffffffffffffffffffff1681526020019081526020015f205f6101000a81548160ff02191690831515021790555050565b50565b50565b5f604051905090565b5f5ffd5b5f5ffd5b5f819050919050565b611ba081611b8e565b8114611baa575f5ffd5b50565b5f81359050611bbb81611b97565b92915050565b5f73ffffffffffffffffffffffffffffffffffffffff82169050919050565b5f611bea82611bc1565b9050919050565b611bfa81611be0565b8114611c04575f5ffd5b50565b5f81359050611c1581611bf1565b92915050565b5f5f60408385031215611c3157611c30611b86565b5b5f611c3e85828601611bad565b9250506020611c4f85828601611c07565b9150509250929050565b5f8115159050919050565b611c6d81611c59565b82525050565b5f602082019050611c865f830184611c64565b92915050565b611c9581611b8e565b82525050565b5f602082019050611cae5f830184611c8c565b92915050565b5f5ffd5b5f5ffd5b5f601f19601f8301169050919050565b7f4e487b71000000000000000000000000000000000000000000000000000000005f52604160045260245ffd5b611d0282611cbc565b810181811067ffffffffffffffff82111715611d2157611d20611ccc565b5b80604052505050565b5f611d33611b7d565b9050611d3f8282611cf9565b919050565b5f67ffffffffffffffff821115611d5e57611d5d611ccc565b5b611d6782611cbc565b9050602081019050919050565b828183375f83830152505050565b5f611d94611d8f84611d44565b611d2a565b905082815260208101848484011115611db057611daf611cb8565b5b611dbb848285611d74565b509392505050565b5f82601f830112611dd757611dd6611cb4565b5b8135611de7848260208601611d82565b91505092915050565b60068110611dfc575f5ffd5b50565b5f81359050611e0d81611df0565b92915050565b60038110611e1f575f5ffd5b50565b5f81359050611e3081611e13565b92915050565b5f5f5f5f5f5f60c08789031215611e5057611e4f611b86565b5b5f87013567ffffffffffffffff811115611e6d57611e6c611b8a565b5b611e7989828a01611dc3565b9650506020611e8a89828a01611dff565b9550506040611e9b89828a01611e22565b9450506060611eac89828a01611c07565b9350506080611ebd89828a01611bad565b92505060a0611ece89828a01611bad565b9150509295509295509295565b5f60208284031215611ef057611eef611b86565b5b5f611efd84828501611bad565b91505092915050565b5f60208284031215611f1b57611f1a611b86565b5b5f611f2884828501611c07565b91505092915050565b5f5f60408385031215611f4757611f46611b86565b5b5f611f5485828601611bad565b9250506020611f6585828601611bad565b9150509250929050565b611f7881611be0565b82525050565b5f602082019050611f915f830184611f6f565b92915050565b5f81519050919050565b5f82825260208201905092915050565b8281835e5f83830152505050565b5f611fc982611f97565b611fd38185611fa1565b9350611fe3818560208601611fb1565b611fec81611cbc565b840191505092915050565b7f4e487b71000000000000000000000000000000000000000000000000000000005f52602160045260245ffd5b6006811061203557612034611ff7565b5b50565b5f81905061204582612024565b919050565b5f61205482612038565b9050919050565b6120648161204a565b82525050565b5f610100820190508181035f830152612083818b611fbf565b9050612092602083018a611c8c565b61209f6040830189611c8c565b6120ac6060830188611c8c565b6120b96080830187611c8c565b6120c660a0830186611c8c565b6120d360c083018561205b565b6120e060e0830184611c64565b9998505050505050505050565b6120f681611c59565b8114612100575f5ffd5b50565b5f81359050612111816120ed565b92915050565b5f5f5f6060848603121561212e5761212d611b86565b5b5f61213b86828701611bad565b935050602061214c86828701612103565b925050604061215d86828701611bad565b9150509250925092565b7f4e6f7420612044414f206d656d626572000000000000000000000000000000005f82015250565b5f61219b601083611fa1565b91506121a682612167565b602082019050919050565b5f6020820190508181035f8301526121c88161218f565b9050919050565b7f4475726174696f6e206d757374206265203e20300000000000000000000000005f82015250565b5f612203601483611fa1565b915061220e826121cf565b602082019050919050565b5f6020820190508181035f830152612230816121f7565b9050919050565b7f4465736372697074696f6e2072657175697265640000000000000000000000005f82015250565b5f61226b601483611fa1565b915061227682612237565b602082019050919050565b5f6020820190508181035f8301526122988161225f565b9050919050565b7f4e487b71000000000000000000000000000000000000000000000000000000005f52601160045260245ffd5b5f6122d682611b8e565b91507fffffffffffffffffffffffffffffffffffffffffffffffffffffffffffffffff82036123085761230761229f565b5b600182019050919050565b7f4e487b71000000000000000000000000000000000000000000000000000000005f52602260045260245ffd5b5f600282049050600182168061235757607f821691505b60208210810361236a57612369612313565b5b50919050565b5f819050815f5260205f209050919050565b5f6020601f8301049050919050565b5f82821b905092915050565b5f600883026123cc7fffffffffffffffffffffffffffffffffffffffffffffffffffffffffffffffff82612391565b6123d68683612391565b95508019841693508086168417925050509392505050565b5f819050919050565b5f61241161240c61240784611b8e565b6123ee565b611b8e565b9050919050565b5f819050919050565b61242a836123f7565b61243e61243682612418565b84845461239d565b825550505050565b5f5f905090565b612455612446565b612460818484612421565b505050565b5b81811015612483576124785f8261244d565b600181019050612466565b5050565b601f8211156124c85761249981612370565b6124a284612382565b810160208510156124b1578190505b6124c56124bd85612382565b830182612465565b50505b505050565b5f82821c905092915050565b5f6124e85f19846008026124cd565b1980831691505092915050565b5f61250083836124d9565b9150826002028217905092915050565b61251982611f97565b67ffffffffffffffff81111561253257612531611ccc565b5b61253c8254612340565b612547828285612487565b5f60209050601f831160018114612578575f8415612566578287015190505b61257085826124f5565b8655506125d7565b601f19841661258686612370565b5f5b828110156125ad57848901518255600182019150602085019450602081019050612588565b868310156125ca57848901516125c6601f8916826124d9565b8355505b6001600288020188555050505b505050505050565b7f496e766573746d656e742070726f706f73616c73206d757374207573652057655f8201527f6967687465642071756f72756d00000000000000000000000000000000000000602082015250565b5f612639602d83611fa1565b9150612644826125df565b604082019050919050565b5f6020820190508181035f8301526126668161262d565b9050919050565b7f4f6e6c7920696e766573746d656e742070726f706f73616c732063616e2075735f8201527f652057656967687465642071756f72756d000000000000000000000000000000602082015250565b5f6126c7603183611fa1565b91506126d28261266d565b604082019050919050565b5f6020820190508181035f8301526126f4816126bb565b9050919050565b5f61270582611b8e565b915061271083611b8e565b925082820261271e81611b8e565b915082820484148315176127355761273461229f565b5b5092915050565b5f61274682611b8e565b915061275183611b8e565b92508282019050808211156127695761276861229f565b5b92915050565b5f6040820190506127825f83018561205b565b81810360208301526127948184611fbf565b90509392505050565b7f4f6e6c792070726f706f7365722063616e2064656c65746500000000000000005f82015250565b5f6127d1601883611fa1565b91506127dc8261279d565b602082019050919050565b5f6020820190508181035f8301526127fe816127c5565b9050919050565b7f566f74696e6720616c726561647920656e6465640000000000000000000000005f82015250565b5f612839601483611fa1565b915061284482612805565b602082019050919050565b5f6020820190508181035f8301526128668161282d565b9050919050565b7f416c7265616479206578656375746564206f722064656c657465642070726f705f8201527f6f73616c00000000000000000000000000000000000000000000000000000000602082015250565b5f6128c7602483611fa1565b91506128d28261286d565b604082019050919050565b5f6020820190508181035f8301526128f4816128bb565b9050919050565b7f4e487b71000000000000000000000000000000000000000000000000000000005f52603260045260245ffd5b5f60408201905061293b5f830185611f6f565b6129486020830184611c8c565b9392505050565b5f8151905061295d816120ed565b92915050565b5f6020828403121561297857612977611b86565b5b5f6129858482850161294f565b91505092915050565b7f546f6b656e20726566756e64206661696c6564000000000000000000000000005f82015250565b5f6129c2601383611fa1565b91506129cd8261298e565b602082019050919050565b5f6020820190508181035f8301526129ef816129b6565b9050919050565b5f612a0082611b8e565b9150612a0b83611b8e565b9250828203905081811115612a2357612a2261229f565b5b92915050565b7f4e487b71000000000000000000000000000000000000000000000000000000005f52601260045260245ffd5b5f612a6082611b8e565b9150612a6b83611b8e565b925082612a7b57612a7a612a29565b5b828204905092915050565b5f612a9082611b8e565b9150612a9b83611b8e565b925082612aab57612aaa612a29565b5b828206905092915050565b7f566f74696e67206e6f74207374617274656400000000000000000000000000005f82015250565b5f612aea601283611fa1565b9150612af582612ab6565b602082019050919050565b5f6020820190508181035f830152612b1781612ade565b9050919050565b7f566f74696e6720656e64656400000000000000000000000000000000000000005f82015250565b5f612b52600c83611fa1565b9150612b5d82612b1e565b602082019050919050565b5f6020820190508181035f830152612b7f81612b46565b9050919050565b7f416c726561647920766f746564000000000000000000000000000000000000005f82015250565b5f612bba600d83611fa1565b9150612bc582612b86565b602082019050919050565b5f6020820190508181035f830152612be781612bae565b9050919050565b7f4d75737420766f7465207769746820746f6b656e7300000000000000000000005f82015250565b5f612c22601583611fa1565b9150612c2d82612bee565b602082019050919050565b5f6020820190508181035f830152612c4f81612c16565b9050919050565b7f4d696e696d756d203320746f6b656e732050524f4649207265717569726564205f82015250565b5f612c8a602083611fa1565b9150612c9582612c56565b602082019050919050565b5f6020820190508181035f830152612cb781612c7e565b9050919050565b5f606082019050612cd15f830186611f6f565b612cde6020830185611f6f565b612ceb6040830184611c8c565b949350505050565b7f4d696e696d756d203620746f6b656e732050524f4649207265717569726564005f82015250565b5f612d27601f83611fa1565b9150612d3282612cf3565b602082019050919050565b5f6020820190508181035f830152612d5481612d1b565b9050919050565b5f604082019050612d6e5f830185611c64565b612d7b6020830184611c8c565b9392505050565b7f566f74696e67206e6f7420656e646564000000000000000000000000000000005f82015250565b5f612db6601083611fa1565b9150612dc182612d82565b602082019050919050565b5f6020820190508181035f830152612de381612daa565b9050919050565b7f416c7265616479206578656375746564000000000000000000000000000000005f82015250565b5f612e1e601083611fa1565b9150612e2982612dea565b602082019050919050565b5f6020820190508181035f830152612e4b81612e12565b9050919050565b7f50726f706f73616c206661696c65642028666f72566f746573203e3d206167615f8201527f696e7374566f7465732900000000000000000000000000000000000000000000602082015250565b5f612eac602a83611fa1565b9150612eb782612e52565b604082019050919050565b5f6020820190508181035f830152612ed981612ea0565b9050919050565b7f51756f72756d206e6f74207265616368656400000000000000000000000000005f82015250565b5f612f14601283611fa1565b9150612f1f82612ee0565b602082019050919050565b5f6020820190508181035f830152612f4181612f08565b9050919050565b7f496e76616c6964207461726765740000000000000000000000000000000000005f82015250565b5f612f7c600e83611fa1565b9150612f8782612f48565b602082019050919050565b5f6020820190508181035f830152612fa981612f70565b9050919050565b7f496e76616c696420616d6f756e740000000000000000000000000000000000005f82015250565b5f612fe4600e83611fa1565b9150612fef82612fb0565b602082019050919050565b5f6020820190508181035f83015261301181612fd8565b9050919050565b5f81905092915050565b50565b5f6130305f83613018565b915061303b82613022565b5f82019050919050565b5f61304f82613025565b9150819050919050565b7f455448207472616e73666572206661696c6564000000000000000000000000005f82015250565b5f61308d601383611fa1565b915061309882613059565b602082019050919050565b5f6020820190508181035f8301526130ba81613081565b9050919050565b7f496e76616c6964206d656d6265722061646472657373000000000000000000005f82015250565b5f6130f5601683611fa1565b9150613100826130c1565b602082019050919050565b5f6020820190508181035f830152613122816130e9565b905091905056fea2646970667358221220a985cd744ad4e3b139c81f958c954dd093baf1df7cfb3c5c0dcc5fc684e2c29e64736f6c634300081e0033",
			"opcodes": "PUSH1 0x80 PUSH1 0x40 MSTORE CALLVALUE DUP1 ISZERO PUSH2 0xF JUMPI PUSH0 PUSH0 REVERT JUMPDEST POP PUSH1 0x40 MLOAD PUSH2 0x3503 CODESIZE SUB DUP1 PUSH2 0x3503 DUP4 CODECOPY DUP2 DUP2 ADD PUSH1 0x40 MSTORE DUP2 ADD SWAP1 PUSH2 0x31 SWAP2 SWAP1 PUSH2 0x2FE JUMP JUMPDEST DUP3 PUSH0 PUSH0 PUSH2 0x100 EXP DUP2 SLOAD DUP2 PUSH20 0xFFFFFFFFFFFFFFFFFFFFFFFFFFFFFFFFFFFFFFFF MUL NOT AND SWAP1 DUP4 PUSH20 0xFFFFFFFFFFFFFFFFFFFFFFFFFFFFFFFFFFFFFFFF AND MUL OR SWAP1 SSTORE POP DUP2 PUSH1 0x1 PUSH0 PUSH2 0x100 EXP DUP2 SLOAD DUP2 PUSH20 0xFFFFFFFFFFFFFFFFFFFFFFFFFFFFFFFFFFFFFFFF MUL NOT AND SWAP1 DUP4 PUSH20 0xFFFFFFFFFFFFFFFFFFFFFFFFFFFFFFFFFFFFFFFF AND MUL OR SWAP1 SSTORE POP PUSH0 PUSH0 SWAP1 POP JUMPDEST DUP2 MLOAD DUP2 LT ISZERO PUSH2 0x13A JUMPI PUSH1 0x1 PUSH1 0x4 PUSH0 DUP5 DUP5 DUP2 MLOAD DUP2 LT PUSH2 0xD6 JUMPI PUSH2 0xD5 PUSH2 0x36A JUMP JUMPDEST JUMPDEST PUSH1 0x20 MUL PUSH1 0x20 ADD ADD MLOAD PUSH20 0xFFFFFFFFFFFFFFFFFFFFFFFFFFFFFFFFFFFFFFFF AND PUSH20 0xFFFFFFFFFFFFFFFFFFFFFFFFFFFFFFFFFFFFFFFF AND DUP2 MSTORE PUSH1 0x20 ADD SWAP1 DUP2 MSTORE PUSH1 0x20 ADD PUSH0 KECCAK256 PUSH0 PUSH2 0x100 EXP DUP2 SLOAD DUP2 PUSH1 0xFF MUL NOT AND SWAP1 DUP4 ISZERO ISZERO MUL OR SWAP1 SSTORE POP DUP1 DUP1 PUSH1 0x1 ADD SWAP2 POP POP PUSH2 0xB5 JUMP JUMPDEST POP POP POP POP PUSH2 0x397 JUMP JUMPDEST PUSH0 PUSH1 0x40 MLOAD SWAP1 POP SWAP1 JUMP JUMPDEST PUSH0 PUSH0 REVERT JUMPDEST PUSH0 PUSH0 REVERT JUMPDEST PUSH0 PUSH20 0xFFFFFFFFFFFFFFFFFFFFFFFFFFFFFFFFFFFFFFFF DUP3 AND SWAP1 POP SWAP2 SWAP1 POP JUMP JUMPDEST PUSH0 PUSH2 0x17D DUP3 PUSH2 0x154 JUMP JUMPDEST SWAP1 POP SWAP2 SWAP1 POP JUMP JUMPDEST PUSH2 0x18D DUP2 PUSH2 0x173 JUMP JUMPDEST DUP2 EQ PUSH2 0x197 JUMPI PUSH0 PUSH0 REVERT JUMPDEST POP JUMP JUMPDEST PUSH0 DUP2 MLOAD SWAP1 POP PUSH2 0x1A8 DUP2 PUSH2 0x184 JUMP JUMPDEST SWAP3 SWAP2 POP POP JUMP JUMPDEST PUSH0 PUSH0 REVERT JUMPDEST PUSH0 PUSH1 0x1F NOT PUSH1 0x1F DUP4 ADD AND SWAP1 POP SWAP2 SWAP1 POP JUMP JUMPDEST PUSH32 0x4E487B7100000000000000000000000000000000000000000000000000000000 PUSH0 MSTORE PUSH1 0x41 PUSH1 0x4 MSTORE PUSH1 0x24 PUSH0 REVERT JUMPDEST PUSH2 0x1F8 DUP3 PUSH2 0x1B2 JUMP JUMPDEST DUP2 ADD DUP2 DUP2 LT PUSH8 0xFFFFFFFFFFFFFFFF DUP3 GT OR ISZERO PUSH2 0x217 JUMPI PUSH2 0x216 PUSH2 0x1C2 JUMP JUMPDEST JUMPDEST DUP1 PUSH1 0x40 MSTORE POP POP POP JUMP JUMPDEST PUSH0 PUSH2 0x229 PUSH2 0x143 JUMP JUMPDEST SWAP1 POP PUSH2 0x235 DUP3 DUP3 PUSH2 0x1EF JUMP JUMPDEST SWAP2 SWAP1 POP JUMP JUMPDEST PUSH0 PUSH8 0xFFFFFFFFFFFFFFFF DUP3 GT ISZERO PUSH2 0x254 JUMPI PUSH2 0x253 PUSH2 0x1C2 JUMP JUMPDEST JUMPDEST PUSH1 0x20 DUP3 MUL SWAP1 POP PUSH1 0x20 DUP2 ADD SWAP1 POP SWAP2 SWAP1 POP JUMP JUMPDEST PUSH0 PUSH0 REVERT JUMPDEST PUSH0 PUSH2 0x27B PUSH2 0x276 DUP5 PUSH2 0x23A JUMP JUMPDEST PUSH2 0x220 JUMP JUMPDEST SWAP1 POP DUP1 DUP4 DUP3 MSTORE PUSH1 0x20 DUP3 ADD SWAP1 POP PUSH1 0x20 DUP5 MUL DUP4 ADD DUP6 DUP2 GT ISZERO PUSH2 0x29E JUMPI PUSH2 0x29D PUSH2 0x265 JUMP JUMPDEST JUMPDEST DUP4 JUMPDEST DUP2 DUP2 LT ISZERO PUSH2 0x2C7 JUMPI DUP1 PUSH2 0x2B3 DUP9 DUP3 PUSH2 0x19A JUMP JUMPDEST DUP5 MSTORE PUSH1 0x20 DUP5 ADD SWAP4 POP POP PUSH1 0x20 DUP2 ADD SWAP1 POP PUSH2 0x2A0 JUMP JUMPDEST POP POP POP SWAP4 SWAP3 POP POP POP JUMP JUMPDEST PUSH0 DUP3 PUSH1 0x1F DUP4 ADD SLT PUSH2 0x2E5 JUMPI PUSH2 0x2E4 PUSH2 0x1AE JUMP JUMPDEST JUMPDEST DUP2 MLOAD PUSH2 0x2F5 DUP5 DUP3 PUSH1 0x20 DUP7 ADD PUSH2 0x269 JUMP JUMPDEST SWAP2 POP POP SWAP3 SWAP2 POP POP JUMP JUMPDEST PUSH0 PUSH0 PUSH0 PUSH1 0x60 DUP5 DUP7 SUB SLT ISZERO PUSH2 0x315 JUMPI PUSH2 0x314 PUSH2 0x14C JUMP JUMPDEST JUMPDEST PUSH0 PUSH2 0x322 DUP7 DUP3 DUP8 ADD PUSH2 0x19A JUMP JUMPDEST SWAP4 POP POP PUSH1 0x20 PUSH2 0x333 DUP7 DUP3 DUP8 ADD PUSH2 0x19A JUMP JUMPDEST SWAP3 POP POP PUSH1 0x40 DUP5 ADD MLOAD PUSH8 0xFFFFFFFFFFFFFFFF DUP2 GT ISZERO PUSH2 0x354 JUMPI PUSH2 0x353 PUSH2 0x150 JUMP JUMPDEST JUMPDEST PUSH2 0x360 DUP7 DUP3 DUP8 ADD PUSH2 0x2D1 JUMP JUMPDEST SWAP2 POP POP SWAP3 POP SWAP3 POP SWAP3 JUMP JUMPDEST PUSH32 0x4E487B7100000000000000000000000000000000000000000000000000000000 PUSH0 MSTORE PUSH1 0x32 PUSH1 0x4 MSTORE PUSH1 0x24 PUSH0 REVERT JUMPDEST PUSH2 0x315F DUP1 PUSH2 0x3A4 PUSH0 CODECOPY PUSH0 RETURN INVALID PUSH1 0x80 PUSH1 0x40 MSTORE PUSH1 0x4 CALLDATASIZE LT PUSH2 0x90 JUMPI PUSH0 CALLDATALOAD PUSH1 0xE0 SHR DUP1 PUSH4 0xAB89437C GT PUSH2 0x58 JUMPI DUP1 PUSH4 0xAB89437C EQ PUSH2 0x1AC JUMPI DUP1 PUSH4 0xC7F758A8 EQ PUSH2 0x1E8 JUMPI DUP1 PUSH4 0xD46A5D7E EQ PUSH2 0x22B JUMPI DUP1 PUSH4 0xDA35C664 EQ PUSH2 0x253 JUMPI DUP1 PUSH4 0xFE0D94C1 EQ PUSH2 0x27D JUMPI PUSH2 0x90 JUMP JUMPDEST DUP1 PUSH4 0x43859632 EQ PUSH2 0x94 JUMPI DUP1 PUSH4 0x6E5E13D2 EQ PUSH2 0xD0 JUMPI DUP1 PUSH4 0x7EC94625 EQ PUSH2 0x10C JUMPI DUP1 PUSH4 0x8259D553 EQ PUSH2 0x148 JUMPI DUP1 PUSH4 0x959068EA EQ PUSH2 0x170 JUMPI JUMPDEST PUSH0 PUSH0 REVERT JUMPDEST CALLVALUE DUP1 ISZERO PUSH2 0x9F JUMPI PUSH0 PUSH0 REVERT JUMPDEST POP PUSH2 0xBA PUSH1 0x4 DUP1 CALLDATASIZE SUB DUP2 ADD SWAP1 PUSH2 0xB5 SWAP2 SWAP1 PUSH2 0x1C1B JUMP JUMPDEST PUSH2 0x299 JUMP JUMPDEST PUSH1 0x40 MLOAD PUSH2 0xC7 SWAP2 SWAP1 PUSH2 0x1C73 JUMP JUMPDEST PUSH1 0x40 MLOAD DUP1 SWAP2 SUB SWAP1 RETURN JUMPDEST CALLVALUE DUP1 ISZERO PUSH2 0xDB JUMPI PUSH0 PUSH0 REVERT JUMPDEST POP PUSH2 0xF6 PUSH1 0x4 DUP1 CALLDATASIZE SUB DUP2 ADD SWAP1 PUSH2 0xF1 SWAP2 SWAP1 PUSH2 0x1C1B JUMP JUMPDEST PUSH2 0x2FE JUMP JUMPDEST PUSH1 0x40 MLOAD PUSH2 0x103 SWAP2 SWAP1 PUSH2 0x1C9B JUMP JUMPDEST PUSH1 0x40 MLOAD DUP1 SWAP2 SUB SWAP1 RETURN JUMPDEST CALLVALUE DUP1 ISZERO PUSH2 0x117 JUMPI PUSH0 PUSH0 REVERT JUMPDEST POP PUSH2 0x132 PUSH1 0x4 DUP1 CALLDATASIZE SUB DUP2 ADD SWAP1 PUSH2 0x12D SWAP2 SWAP1 PUSH2 0x1E36 JUMP JUMPDEST PUSH2 0x31E JUMP JUMPDEST PUSH1 0x40 MLOAD PUSH2 0x13F SWAP2 SWAP1 PUSH2 0x1C9B JUMP JUMPDEST PUSH1 0x40 MLOAD DUP1 SWAP2 SUB SWAP1 RETURN JUMPDEST CALLVALUE DUP1 ISZERO PUSH2 0x153 JUMPI PUSH0 PUSH0 REVERT JUMPDEST POP PUSH2 0x16E PUSH1 0x4 DUP1 CALLDATASIZE SUB DUP2 ADD SWAP1 PUSH2 0x169 SWAP2 SWAP1 PUSH2 0x1EDB JUMP JUMPDEST PUSH2 0x6EF JUMP JUMPDEST STOP JUMPDEST CALLVALUE DUP1 ISZERO PUSH2 0x17B JUMPI PUSH0 PUSH0 REVERT JUMPDEST POP PUSH2 0x196 PUSH1 0x4 DUP1 CALLDATASIZE SUB DUP2 ADD SWAP1 PUSH2 0x191 SWAP2 SWAP1 PUSH2 0x1F06 JUMP JUMPDEST PUSH2 0xC26 JUMP JUMPDEST PUSH1 0x40 MLOAD PUSH2 0x1A3 SWAP2 SWAP1 PUSH2 0x1C73 JUMP JUMPDEST PUSH1 0x40 MLOAD DUP1 SWAP2 SUB SWAP1 RETURN JUMPDEST CALLVALUE DUP1 ISZERO PUSH2 0x1B7 JUMPI PUSH0 PUSH0 REVERT JUMPDEST POP PUSH2 0x1D2 PUSH1 0x4 DUP1 CALLDATASIZE SUB DUP2 ADD SWAP1 PUSH2 0x1CD SWAP2 SWAP1 PUSH2 0x1F31 JUMP JUMPDEST PUSH2 0xC43 JUMP JUMPDEST PUSH1 0x40 MLOAD PUSH2 0x1DF SWAP2 SWAP1 PUSH2 0x1F7E JUMP JUMPDEST PUSH1 0x40 MLOAD DUP1 SWAP2 SUB SWAP1 RETURN JUMPDEST CALLVALUE DUP1 ISZERO PUSH2 0x1F3 JUMPI PUSH0 PUSH0 REVERT JUMPDEST POP PUSH2 0x20E PUSH1 0x4 DUP1 CALLDATASIZE SUB DUP2 ADD SWAP1 PUSH2 0x209 SWAP2 SWAP1 PUSH2 0x1EDB JUMP JUMPDEST PUSH2 0xC8B JUMP JUMPDEST PUSH1 0x40 MLOAD PUSH2 0x222 SWAP9 SWAP8 SWAP7 SWAP6 SWAP5 SWAP4 SWAP3 SWAP2 SWAP1 PUSH2 0x206A JUMP JUMPDEST PUSH1 0x40 MLOAD DUP1 SWAP2 SUB SWAP1 RETURN JUMPDEST CALLVALUE DUP1 ISZERO PUSH2 0x236 JUMPI PUSH0 PUSH0 REVERT JUMPDEST POP PUSH2 0x251 PUSH1 0x4 DUP1 CALLDATASIZE SUB DUP2 ADD SWAP1 PUSH2 0x24C SWAP2 SWAP1 PUSH2 0x2117 JUMP JUMPDEST PUSH2 0xDC8 JUMP JUMPDEST STOP JUMPDEST CALLVALUE DUP1 ISZERO PUSH2 0x25E JUMPI PUSH0 PUSH0 REVERT JUMPDEST POP PUSH2 0x267 PUSH2 0x1320 JUMP JUMPDEST PUSH1 0x40 MLOAD PUSH2 0x274 SWAP2 SWAP1 PUSH2 0x1C9B JUMP JUMPDEST PUSH1 0x40 MLOAD DUP1 SWAP2 SUB SWAP1 RETURN JUMPDEST PUSH2 0x297 PUSH1 0x4 DUP1 CALLDATASIZE SUB DUP2 ADD SWAP1 PUSH2 0x292 SWAP2 SWAP1 PUSH2 0x1EDB JUMP JUMPDEST PUSH2 0x1326 JUMP JUMPDEST STOP JUMPDEST PUSH0 PUSH1 0x3 PUSH0 DUP5 DUP2 MSTORE PUSH1 0x20 ADD SWAP1 DUP2 MSTORE PUSH1 0x20 ADD PUSH0 KECCAK256 PUSH1 0x8 ADD PUSH0 DUP4 PUSH20 0xFFFFFFFFFFFFFFFFFFFFFFFFFFFFFFFFFFFFFFFF AND PUSH20 0xFFFFFFFFFFFFFFFFFFFFFFFFFFFFFFFFFFFFFFFF AND DUP2 MSTORE PUSH1 0x20 ADD SWAP1 DUP2 MSTORE PUSH1 0x20 ADD PUSH0 KECCAK256 PUSH0 SWAP1 SLOAD SWAP1 PUSH2 0x100 EXP SWAP1 DIV PUSH1 0xFF AND SWAP1 POP SWAP3 SWAP2 POP POP JUMP JUMPDEST PUSH1 0x6 PUSH1 0x20 MSTORE DUP2 PUSH0 MSTORE PUSH1 0x40 PUSH0 KECCAK256 PUSH1 0x20 MSTORE DUP1 PUSH0 MSTORE PUSH1 0x40 PUSH0 KECCAK256 PUSH0 SWAP2 POP SWAP2 POP POP SLOAD DUP2 JUMP JUMPDEST PUSH0 PUSH1 0x4 PUSH0 CALLER PUSH20 0xFFFFFFFFFFFFFFFFFFFFFFFFFFFFFFFFFFFFFFFF AND PUSH20 0xFFFFFFFFFFFFFFFFFFFFFFFFFFFFFFFFFFFFFFFF AND DUP2 MSTORE PUSH1 0x20 ADD SWAP1 DUP2 MSTORE PUSH1 0x20 ADD PUSH0 KECCAK256 PUSH0 SWAP1 SLOAD SWAP1 PUSH2 0x100 EXP SWAP1 DIV PUSH1 0xFF AND PUSH2 0x3A8 JUMPI PUSH1 0x40 MLOAD PUSH32 0x8C379A000000000000000000000000000000000000000000000000000000000 DUP2 MSTORE PUSH1 0x4 ADD PUSH2 0x39F SWAP1 PUSH2 0x21B1 JUMP JUMPDEST PUSH1 0x40 MLOAD DUP1 SWAP2 SUB SWAP1 REVERT JUMPDEST PUSH0 DUP4 GT PUSH2 0x3EA JUMPI PUSH1 0x40 MLOAD PUSH32 0x8C379A000000000000000000000000000000000000000000000000000000000 DUP2 MSTORE PUSH1 0x4 ADD PUSH2 0x3E1 SWAP1 PUSH2 0x2219 JUMP JUMPDEST PUSH1 0x40 MLOAD DUP1 SWAP2 SUB SWAP1 REVERT JUMPDEST PUSH0 DUP8 MLOAD GT PUSH2 0x42D JUMPI PUSH1 0x40 MLOAD PUSH32 0x8C379A000000000000000000000000000000000000000000000000000000000 DUP2 MSTORE PUSH1 0x4 ADD PUSH2 0x424 SWAP1 PUSH2 0x2281 JUMP JUMPDEST PUSH1 0x40 MLOAD DUP1 SWAP2 SUB SWAP1 REVERT JUMPDEST PUSH0 PUSH1 0x2 PUSH0 DUP2 SLOAD DUP1 SWAP3 SWAP2 SWAP1 PUSH2 0x440 SWAP1 PUSH2 0x22CC JUMP JUMPDEST SWAP2 SWAP1 POP SSTORE SWAP1 POP PUSH0 PUSH1 0x3 PUSH0 DUP4 DUP2 MSTORE PUSH1 0x20 ADD SWAP1 DUP2 MSTORE PUSH1 0x20 ADD PUSH0 KECCAK256 SWAP1 POP DUP9 DUP2 PUSH0 ADD SWAP1 DUP2 PUSH2 0x46A SWAP2 SWAP1 PUSH2 0x2510 JUMP JUMPDEST POP DUP8 DUP2 PUSH1 0x5 ADD PUSH0 PUSH2 0x100 EXP DUP2 SLOAD DUP2 PUSH1 0xFF MUL NOT AND SWAP1 DUP4 PUSH1 0x5 DUP2 GT ISZERO PUSH2 0x491 JUMPI PUSH2 0x490 PUSH2 0x1FF7 JUMP JUMPDEST JUMPDEST MUL OR SWAP1 SSTORE POP DUP7 DUP2 PUSH1 0x5 ADD PUSH1 0x1 PUSH2 0x100 EXP DUP2 SLOAD DUP2 PUSH1 0xFF MUL NOT AND SWAP1 DUP4 PUSH1 0x2 DUP2 GT ISZERO PUSH2 0x4BD JUMPI PUSH2 0x4BC PUSH2 0x1FF7 JUMP JUMPDEST JUMPDEST MUL OR SWAP1 SSTORE POP DUP6 DUP2 PUSH1 0x5 ADD PUSH1 0x3 PUSH2 0x100 EXP DUP2 SLOAD DUP2 PUSH20 0xFFFFFFFFFFFFFFFFFFFFFFFFFFFFFFFFFFFFFFFF MUL NOT AND SWAP1 DUP4 PUSH20 0xFFFFFFFFFFFFFFFFFFFFFFFFFFFFFFFFFFFFFFFF AND MUL OR SWAP1 SSTORE POP DUP4 DUP2 PUSH1 0x7 ADD DUP2 SWAP1 SSTORE POP CALLER DUP2 PUSH1 0x6 ADD PUSH0 PUSH2 0x100 EXP DUP2 SLOAD DUP2 PUSH20 0xFFFFFFFFFFFFFFFFFFFFFFFFFFFFFFFFFFFFFFFF MUL NOT AND SWAP1 DUP4 PUSH20 0xFFFFFFFFFFFFFFFFFFFFFFFFFFFFFFFFFFFFFFFF AND MUL OR SWAP1 SSTORE POP PUSH0 PUSH1 0x5 DUP2 GT ISZERO PUSH2 0x563 JUMPI PUSH2 0x562 PUSH2 0x1FF7 JUMP JUMPDEST JUMPDEST DUP9 PUSH1 0x5 DUP2 GT ISZERO PUSH2 0x576 JUMPI PUSH2 0x575 PUSH2 0x1FF7 JUMP JUMPDEST JUMPDEST EQ DUP1 PUSH2 0x5A6 JUMPI POP PUSH1 0x1 PUSH1 0x5 DUP2 GT ISZERO PUSH2 0x591 JUMPI PUSH2 0x590 PUSH2 0x1FF7 JUMP JUMPDEST JUMPDEST DUP9 PUSH1 0x5 DUP2 GT ISZERO PUSH2 0x5A4 JUMPI PUSH2 0x5A3 PUSH2 0x1FF7 JUMP JUMPDEST JUMPDEST EQ JUMPDEST ISZERO PUSH2 0x616 JUMPI PUSH1 0x2 DUP1 DUP2 GT ISZERO PUSH2 0x5BE JUMPI PUSH2 0x5BD PUSH2 0x1FF7 JUMP JUMPDEST JUMPDEST DUP8 PUSH1 0x2 DUP2 GT ISZERO PUSH2 0x5D1 JUMPI PUSH2 0x5D0 PUSH2 0x1FF7 JUMP JUMPDEST JUMPDEST EQ PUSH2 0x611 JUMPI PUSH1 0x40 MLOAD PUSH32 0x8C379A000000000000000000000000000000000000000000000000000000000 DUP2 MSTORE PUSH1 0x4 ADD PUSH2 0x608 SWAP1 PUSH2 0x264F JUMP JUMPDEST PUSH1 0x40 MLOAD DUP1 SWAP2 SUB SWAP1 REVERT JUMPDEST PUSH2 0x67D JUMP JUMPDEST PUSH1 0x2 DUP1 DUP2 GT ISZERO PUSH2 0x629 JUMPI PUSH2 0x628 PUSH2 0x1FF7 JUMP JUMPDEST JUMPDEST DUP8 PUSH1 0x2 DUP2 GT ISZERO PUSH2 0x63C JUMPI PUSH2 0x63B PUSH2 0x1FF7 JUMP JUMPDEST JUMPDEST SUB PUSH2 0x67C JUMPI PUSH1 0x40 MLOAD PUSH32 0x8C379A000000000000000000000000000000000000000000000000000000000 DUP2 MSTORE PUSH1 0x4 ADD PUSH2 0x673 SWAP1 PUSH2 0x26DD JUMP JUMPDEST PUSH1 0x40 MLOAD DUP1 SWAP2 SUB SWAP1 REVERT JUMPDEST JUMPDEST TIMESTAMP DUP2 PUSH1 0x3 ADD DUP2 SWAP1 SSTORE POP PUSH1 0x3C DUP6 PUSH2 0x693 SWAP2 SWAP1 PUSH2 0x26FB JUMP JUMPDEST TIMESTAMP PUSH2 0x69E SWAP2 SWAP1 PUSH2 0x273C JUMP JUMPDEST DUP2 PUSH1 0x4 ADD DUP2 SWAP1 SSTORE POP DUP2 PUSH32 0x2D6A2A1A504050A1FA6107E44F49971FD89DBE544B433D65F1C572CE5FA3B7D1 DUP10 DUP12 PUSH1 0x40 MLOAD PUSH2 0x6D8 SWAP3 SWAP2 SWAP1 PUSH2 0x276F JUMP JUMPDEST PUSH1 0x40 MLOAD DUP1 SWAP2 SUB SWAP1 LOG2 DUP2 SWAP3 POP POP POP SWAP7 SWAP6 POP POP POP POP POP POP JUMP JUMPDEST PUSH1 0x4 PUSH0 CALLER PUSH20 0xFFFFFFFFFFFFFFFFFFFFFFFFFFFFFFFFFFFFFFFF AND PUSH20 0xFFFFFFFFFFFFFFFFFFFFFFFFFFFFFFFFFFFFFFFF AND DUP2 MSTORE PUSH1 0x20 ADD SWAP1 DUP2 MSTORE PUSH1 0x20 ADD PUSH0 KECCAK256 PUSH0 SWAP1 SLOAD SWAP1 PUSH2 0x100 EXP SWAP1 DIV PUSH1 0xFF AND PUSH2 0x778 JUMPI PUSH1 0x40 MLOAD PUSH32 0x8C379A000000000000000000000000000000000000000000000000000000000 DUP2 MSTORE PUSH1 0x4 ADD PUSH2 0x76F SWAP1 PUSH2 0x21B1 JUMP JUMPDEST PUSH1 0x40 MLOAD DUP1 SWAP2 SUB SWAP1 REVERT JUMPDEST PUSH0 PUSH1 0x3 PUSH0 DUP4 DUP2 MSTORE PUSH1 0x20 ADD SWAP1 DUP2 MSTORE PUSH1 0x20 ADD PUSH0 KECCAK256 SWAP1 POP DUP1 PUSH1 0x6 ADD PUSH0 SWAP1 SLOAD SWAP1 PUSH2 0x100 EXP SWAP1 DIV PUSH20 0xFFFFFFFFFFFFFFFFFFFFFFFFFFFFFFFFFFFFFFFF AND PUSH20 0xFFFFFFFFFFFFFFFFFFFFFFFFFFFFFFFFFFFFFFFF AND CALLER PUSH20 0xFFFFFFFFFFFFFFFFFFFFFFFFFFFFFFFFFFFFFFFF AND EQ PUSH2 0x81D JUMPI PUSH1 0x40 MLOAD PUSH32 0x8C379A000000000000000000000000000000000000000000000000000000000 DUP2 MSTORE PUSH1 0x4 ADD PUSH2 0x814 SWAP1 PUSH2 0x27E7 JUMP JUMPDEST PUSH1 0x40 MLOAD DUP1 SWAP2 SUB SWAP1 REVERT JUMPDEST DUP1 PUSH1 0x4 ADD SLOAD TIMESTAMP GT ISZERO PUSH2 0x864 JUMPI PUSH1 0x40 MLOAD PUSH32 0x8C379A000000000000000000000000000000000000000000000000000000000 DUP2 MSTORE PUSH1 0x4 ADD PUSH2 0x85B SWAP1 PUSH2 0x284F JUMP JUMPDEST PUSH1 0x40 MLOAD DUP1 SWAP2 SUB SWAP1 REVERT JUMPDEST DUP1 PUSH1 0x5 ADD PUSH1 0x2 SWAP1 SLOAD SWAP1 PUSH2 0x100 EXP SWAP1 DIV PUSH1 0xFF AND ISZERO PUSH2 0x8B6 JUMPI PUSH1 0x40 MLOAD PUSH32 0x8C379A000000000000000000000000000000000000000000000000000000000 DUP2 MSTORE PUSH1 0x4 ADD PUSH2 0x8AD SWAP1 PUSH2 0x28DD JUMP JUMPDEST PUSH1 0x40 MLOAD DUP1 SWAP2 SUB SWAP1 REVERT JUMPDEST PUSH1 0x1 DUP2 PUSH1 0x5 ADD PUSH1 0x2 PUSH2 0x100 EXP DUP2 SLOAD DUP2 PUSH1 0xFF MUL NOT AND SWAP1 DUP4 ISZERO ISZERO MUL OR SWAP1 SSTORE POP PUSH0 PUSH1 0x5 PUSH0 DUP5 DUP2 MSTORE PUSH1 0x20 ADD SWAP1 DUP2 MSTORE PUSH1 0x20 ADD PUSH0 KECCAK256 DUP1 SLOAD DUP1 PUSH1 0x20 MUL PUSH1 0x20 ADD PUSH1 0x40 MLOAD SWAP1 DUP2 ADD PUSH1 0x40 MSTORE DUP1 SWAP3 SWAP2 SWAP1 DUP2 DUP2 MSTORE PUSH1 0x20 ADD DUP3 DUP1 SLOAD DUP1 ISZERO PUSH2 0x962 JUMPI PUSH1 0x20 MUL DUP3 ADD SWAP2 SWAP1 PUSH0 MSTORE PUSH1 0x20 PUSH0 KECCAK256 SWAP1 JUMPDEST DUP2 PUSH0 SWAP1 SLOAD SWAP1 PUSH2 0x100 EXP SWAP1 DIV PUSH20 0xFFFFFFFFFFFFFFFFFFFFFFFFFFFFFFFFFFFFFFFF AND PUSH20 0xFFFFFFFFFFFFFFFFFFFFFFFFFFFFFFFFFFFFFFFF AND DUP2 MSTORE PUSH1 0x20 ADD SWAP1 PUSH1 0x1 ADD SWAP1 DUP1 DUP4 GT PUSH2 0x919 JUMPI JUMPDEST POP POP POP POP POP SWAP1 POP PUSH0 PUSH0 SWAP1 POP JUMPDEST DUP2 MLOAD DUP2 LT ISZERO PUSH2 0xC20 JUMPI PUSH0 DUP3 DUP3 DUP2 MLOAD DUP2 LT PUSH2 0x98B JUMPI PUSH2 0x98A PUSH2 0x28FB JUMP JUMPDEST JUMPDEST PUSH1 0x20 MUL PUSH1 0x20 ADD ADD MLOAD SWAP1 POP PUSH0 PUSH1 0x6 PUSH0 DUP8 DUP2 MSTORE PUSH1 0x20 ADD SWAP1 DUP2 MSTORE PUSH1 0x20 ADD PUSH0 KECCAK256 PUSH0 DUP4 PUSH20 0xFFFFFFFFFFFFFFFFFFFFFFFFFFFFFFFFFFFFFFFF AND PUSH20 0xFFFFFFFFFFFFFFFFFFFFFFFFFFFFFFFFFFFFFFFF AND DUP2 MSTORE PUSH1 0x20 ADD SWAP1 DUP2 MSTORE PUSH1 0x20 ADD PUSH0 KECCAK256 SLOAD SWAP1 POP PUSH0 DUP2 GT ISZERO PUSH2 0xC11 JUMPI PUSH0 PUSH1 0x4 PUSH0 DUP5 PUSH20 0xFFFFFFFFFFFFFFFFFFFFFFFFFFFFFFFFFFFFFFFF AND PUSH20 0xFFFFFFFFFFFFFFFFFFFFFFFFFFFFFFFFFFFFFFFF AND DUP2 MSTORE PUSH1 0x20 ADD SWAP1 DUP2 MSTORE PUSH1 0x20 ADD PUSH0 KECCAK256 PUSH0 SWAP1 SLOAD SWAP1 PUSH2 0x100 EXP SWAP1 DIV PUSH1 0xFF AND ISZERO PUSH2 0xADF JUMPI PUSH0 PUSH0 SWAP1 SLOAD SWAP1 PUSH2 0x100 EXP SWAP1 DIV PUSH20 0xFFFFFFFFFFFFFFFFFFFFFFFFFFFFFFFFFFFFFFFF AND PUSH20 0xFFFFFFFFFFFFFFFFFFFFFFFFFFFFFFFFFFFFFFFF AND PUSH4 0xA9059CBB DUP5 DUP5 PUSH1 0x40 MLOAD DUP4 PUSH4 0xFFFFFFFF AND PUSH1 0xE0 SHL DUP2 MSTORE PUSH1 0x4 ADD PUSH2 0xA98 SWAP3 SWAP2 SWAP1 PUSH2 0x2928 JUMP JUMPDEST PUSH1 0x20 PUSH1 0x40 MLOAD DUP1 DUP4 SUB DUP2 PUSH0 DUP8 GAS CALL ISZERO DUP1 ISZERO PUSH2 0xAB4 JUMPI RETURNDATASIZE PUSH0 PUSH0 RETURNDATACOPY RETURNDATASIZE PUSH0 REVERT JUMPDEST POP POP POP POP PUSH1 0x40 MLOAD RETURNDATASIZE PUSH1 0x1F NOT PUSH1 0x1F DUP3 ADD AND DUP3 ADD DUP1 PUSH1 0x40 MSTORE POP DUP2 ADD SWAP1 PUSH2 0xAD8 SWAP2 SWAP1 PUSH2 0x2963 JUMP JUMPDEST SWAP1 POP PUSH2 0xB7E JUMP JUMPDEST PUSH1 0x1 PUSH0 SWAP1 SLOAD SWAP1 PUSH2 0x100 EXP SWAP1 DIV PUSH20 0xFFFFFFFFFFFFFFFFFFFFFFFFFFFFFFFFFFFFFFFF AND PUSH20 0xFFFFFFFFFFFFFFFFFFFFFFFFFFFFFFFFFFFFFFFF AND PUSH4 0xA9059CBB DUP5 DUP5 PUSH1 0x40 MLOAD DUP4 PUSH4 0xFFFFFFFF AND PUSH1 0xE0 SHL DUP2 MSTORE PUSH1 0x4 ADD PUSH2 0xB3B SWAP3 SWAP2 SWAP1 PUSH2 0x2928 JUMP JUMPDEST PUSH1 0x20 PUSH1 0x40 MLOAD DUP1 DUP4 SUB DUP2 PUSH0 DUP8 GAS CALL ISZERO DUP1 ISZERO PUSH2 0xB57 JUMPI RETURNDATASIZE PUSH0 PUSH0 RETURNDATACOPY RETURNDATASIZE PUSH0 REVERT JUMPDEST POP POP POP POP PUSH1 0x40 MLOAD RETURNDATASIZE PUSH1 0x1F NOT PUSH1 0x1F DUP3 ADD AND DUP3 ADD DUP1 PUSH1 0x40 MSTORE POP DUP2 ADD SWAP1 PUSH2 0xB7B SWAP2 SWAP1 PUSH2 0x2963 JUMP JUMPDEST SWAP1 POP JUMPDEST DUP1 PUSH2 0xBBE JUMPI PUSH1 0x40 MLOAD PUSH32 0x8C379A000000000000000000000000000000000000000000000000000000000 DUP2 MSTORE PUSH1 0x4 ADD PUSH2 0xBB5 SWAP1 PUSH2 0x29D8 JUMP JUMPDEST PUSH1 0x40 MLOAD DUP1 SWAP2 SUB SWAP1 REVERT JUMPDEST PUSH0 PUSH1 0x6 PUSH0 DUP10 DUP2 MSTORE PUSH1 0x20 ADD SWAP1 DUP2 MSTORE PUSH1 0x20 ADD PUSH0 KECCAK256 PUSH0 DUP6 PUSH20 0xFFFFFFFFFFFFFFFFFFFFFFFFFFFFFFFFFFFFFFFF AND PUSH20 0xFFFFFFFFFFFFFFFFFFFFFFFFFFFFFFFFFFFFFFFF AND DUP2 MSTORE PUSH1 0x20 ADD SWAP1 DUP2 MSTORE PUSH1 0x20 ADD PUSH0 KECCAK256 DUP2 SWAP1 SSTORE POP POP JUMPDEST POP POP DUP1 DUP1 PUSH1 0x1 ADD SWAP2 POP POP PUSH2 0x96E JUMP JUMPDEST POP POP POP POP JUMP JUMPDEST PUSH1 0x4 PUSH1 0x20 MSTORE DUP1 PUSH0 MSTORE PUSH1 0x40 PUSH0 KECCAK256 PUSH0 SWAP2 POP SLOAD SWAP1 PUSH2 0x100 EXP SWAP1 DIV PUSH1 0xFF AND DUP2 JUMP JUMPDEST PUSH1 0x5 PUSH1 0x20 MSTORE DUP2 PUSH0 MSTORE PUSH1 0x40 PUSH0 KECCAK256 DUP2 DUP2 SLOAD DUP2 LT PUSH2 0xC5C JUMPI PUSH0 DUP1 REVERT JUMPDEST SWAP1 PUSH0 MSTORE PUSH1 0x20 PUSH0 KECCAK256 ADD PUSH0 SWAP2 POP SWAP2 POP SWAP1 SLOAD SWAP1 PUSH2 0x100 EXP SWAP1 DIV PUSH20 0xFFFFFFFFFFFFFFFFFFFFFFFFFFFFFFFFFFFFFFFF AND DUP2 JUMP JUMPDEST PUSH1 0x60 PUSH0 PUSH0 PUSH0 PUSH0 PUSH0 PUSH0 PUSH0 PUSH0 PUSH1 0x3 PUSH0 DUP12 DUP2 MSTORE PUSH1 0x20 ADD SWAP1 DUP2 MSTORE PUSH1 0x20 ADD PUSH0 KECCAK256 SWAP1 POP PUSH0 PUSH0 PUSH0 DUP4 PUSH1 0x4 ADD SLOAD TIMESTAMP LT ISZERO PUSH2 0xCE8 JUMPI TIMESTAMP DUP5 PUSH1 0x4 ADD SLOAD PUSH2 0xCC7 SWAP2 SWAP1 PUSH2 0x29F6 JUMP JUMPDEST SWAP3 POP PUSH1 0x3C DUP4 PUSH2 0xCD6 SWAP2 SWAP1 PUSH2 0x2A56 JUMP JUMPDEST SWAP1 POP PUSH1 0x3C DUP4 PUSH2 0xCE5 SWAP2 SWAP1 PUSH2 0x2A86 JUMP JUMPDEST SWAP2 POP JUMPDEST DUP4 PUSH0 ADD DUP5 PUSH1 0x7 ADD SLOAD DUP6 PUSH1 0x1 ADD SLOAD DUP7 PUSH1 0x2 ADD SLOAD DUP6 DUP6 DUP10 PUSH1 0x5 ADD PUSH0 SWAP1 SLOAD SWAP1 PUSH2 0x100 EXP SWAP1 DIV PUSH1 0xFF AND DUP11 PUSH1 0x5 ADD PUSH1 0x2 SWAP1 SLOAD SWAP1 PUSH2 0x100 EXP SWAP1 DIV PUSH1 0xFF AND DUP8 DUP1 SLOAD PUSH2 0xD2B SWAP1 PUSH2 0x2340 JUMP JUMPDEST DUP1 PUSH1 0x1F ADD PUSH1 0x20 DUP1 SWAP2 DIV MUL PUSH1 0x20 ADD PUSH1 0x40 MLOAD SWAP1 DUP2 ADD PUSH1 0x40 MSTORE DUP1 SWAP3 SWAP2 SWAP1 DUP2 DUP2 MSTORE PUSH1 0x20 ADD DUP3 DUP1 SLOAD PUSH2 0xD57 SWAP1 PUSH2 0x2340 JUMP JUMPDEST DUP1 ISZERO PUSH2 0xDA2 JUMPI DUP1 PUSH1 0x1F LT PUSH2 0xD79 JUMPI PUSH2 0x100 DUP1 DUP4 SLOAD DIV MUL DUP4 MSTORE SWAP2 PUSH1 0x20 ADD SWAP2 PUSH2 0xDA2 JUMP JUMPDEST DUP3 ADD SWAP2 SWAP1 PUSH0 MSTORE PUSH1 0x20 PUSH0 KECCAK256 SWAP1 JUMPDEST DUP2 SLOAD DUP2 MSTORE SWAP1 PUSH1 0x1 ADD SWAP1 PUSH1 0x20 ADD DUP1 DUP4 GT PUSH2 0xD85 JUMPI DUP3 SWAP1 SUB PUSH1 0x1F AND DUP3 ADD SWAP2 JUMPDEST POP POP POP POP POP SWAP8 POP SWAP12 POP SWAP12 POP SWAP12 POP SWAP12 POP SWAP12 POP SWAP12 POP SWAP12 POP SWAP12 POP POP POP POP POP SWAP2 SWAP4 SWAP6 SWAP8 POP SWAP2 SWAP4 SWAP6 SWAP8 JUMP JUMPDEST PUSH0 PUSH1 0x3 PUSH0 DUP6 DUP2 MSTORE PUSH1 0x20 ADD SWAP1 DUP2 MSTORE PUSH1 0x20 ADD PUSH0 KECCAK256 SWAP1 POP DUP1 PUSH1 0x3 ADD SLOAD TIMESTAMP LT ISZERO PUSH2 0xE23 JUMPI PUSH1 0x40 MLOAD PUSH32 0x8C379A000000000000000000000000000000000000000000000000000000000 DUP2 MSTORE PUSH1 0x4 ADD PUSH2 0xE1A SWAP1 PUSH2 0x2B00 JUMP JUMPDEST PUSH1 0x40 MLOAD DUP1 SWAP2 SUB SWAP1 REVERT JUMPDEST DUP1 PUSH1 0x4 ADD SLOAD TIMESTAMP GT ISZERO PUSH2 0xE6A JUMPI PUSH1 0x40 MLOAD PUSH32 0x8C379A000000000000000000000000000000000000000000000000000000000 DUP2 MSTORE PUSH1 0x4 ADD PUSH2 0xE61 SWAP1 PUSH2 0x2B68 JUMP JUMPDEST PUSH1 0x40 MLOAD DUP1 SWAP2 SUB SWAP1 REVERT JUMPDEST DUP1 PUSH1 0x8 ADD PUSH0 CALLER PUSH20 0xFFFFFFFFFFFFFFFFFFFFFFFFFFFFFFFFFFFFFFFF AND PUSH20 0xFFFFFFFFFFFFFFFFFFFFFFFFFFFFFFFFFFFFFFFF AND DUP2 MSTORE PUSH1 0x20 ADD SWAP1 DUP2 MSTORE PUSH1 0x20 ADD PUSH0 KECCAK256 PUSH0 SWAP1 SLOAD SWAP1 PUSH2 0x100 EXP SWAP1 DIV PUSH1 0xFF AND ISZERO PUSH2 0xEF6 JUMPI PUSH1 0x40 MLOAD PUSH32 0x8C379A000000000000000000000000000000000000000000000000000000000 DUP2 MSTORE PUSH1 0x4 ADD PUSH2 0xEED SWAP1 PUSH2 0x2BD0 JUMP JUMPDEST PUSH1 0x40 MLOAD DUP1 SWAP2 SUB SWAP1 REVERT JUMPDEST PUSH0 DUP3 GT PUSH2 0xF38 JUMPI PUSH1 0x40 MLOAD PUSH32 0x8C379A000000000000000000000000000000000000000000000000000000000 DUP2 MSTORE PUSH1 0x4 ADD PUSH2 0xF2F SWAP1 PUSH2 0x2C38 JUMP JUMPDEST PUSH1 0x40 MLOAD DUP1 SWAP2 SUB SWAP1 REVERT JUMPDEST PUSH0 PUSH1 0x4 PUSH0 CALLER PUSH20 0xFFFFFFFFFFFFFFFFFFFFFFFFFFFFFFFFFFFFFFFF AND PUSH20 0xFFFFFFFFFFFFFFFFFFFFFFFFFFFFFFFFFFFFFFFF AND DUP2 MSTORE PUSH1 0x20 ADD SWAP1 DUP2 MSTORE PUSH1 0x20 ADD PUSH0 KECCAK256 PUSH0 SWAP1 SLOAD SWAP1 PUSH2 0x100 EXP SWAP1 DIV PUSH1 0xFF AND ISZERO PUSH2 0x107E JUMPI PUSH1 0x3 DUP4 LT ISZERO PUSH2 0xFCC JUMPI PUSH1 0x40 MLOAD PUSH32 0x8C379A000000000000000000000000000000000000000000000000000000000 DUP2 MSTORE PUSH1 0x4 ADD PUSH2 0xFC3 SWAP1 PUSH2 0x2CA0 JUMP JUMPDEST PUSH1 0x40 MLOAD DUP1 SWAP2 SUB SWAP1 REVERT JUMPDEST PUSH0 PUSH0 SWAP1 SLOAD SWAP1 PUSH2 0x100 EXP SWAP1 DIV PUSH20 0xFFFFFFFFFFFFFFFFFFFFFFFFFFFFFFFFFFFFFFFF AND PUSH20 0xFFFFFFFFFFFFFFFFFFFFFFFFFFFFFFFFFFFFFFFF AND PUSH4 0x23B872DD CALLER ADDRESS DUP7 PUSH1 0x40 MLOAD DUP5 PUSH4 0xFFFFFFFF AND PUSH1 0xE0 SHL DUP2 MSTORE PUSH1 0x4 ADD PUSH2 0x1029 SWAP4 SWAP3 SWAP2 SWAP1 PUSH2 0x2CBE JUMP JUMPDEST PUSH1 0x20 PUSH1 0x40 MLOAD DUP1 DUP4 SUB DUP2 PUSH0 DUP8 GAS CALL ISZERO DUP1 ISZERO PUSH2 0x1045 JUMPI RETURNDATASIZE PUSH0 PUSH0 RETURNDATACOPY RETURNDATASIZE PUSH0 REVERT JUMPDEST POP POP POP POP PUSH1 0x40 MLOAD RETURNDATASIZE PUSH1 0x1F NOT PUSH1 0x1F DUP3 ADD AND DUP3 ADD DUP1 PUSH1 0x40 MSTORE POP DUP2 ADD SWAP1 PUSH2 0x1069 SWAP2 SWAP1 PUSH2 0x2963 JUMP JUMPDEST POP PUSH1 0x3 DUP4 PUSH2 0x1077 SWAP2 SWAP1 PUSH2 0x2A56 JUMP JUMPDEST SWAP1 POP PUSH2 0x1171 JUMP JUMPDEST PUSH1 0x6 DUP4 LT ISZERO PUSH2 0x10C2 JUMPI PUSH1 0x40 MLOAD PUSH32 0x8C379A000000000000000000000000000000000000000000000000000000000 DUP2 MSTORE PUSH1 0x4 ADD PUSH2 0x10B9 SWAP1 PUSH2 0x2D3D JUMP JUMPDEST PUSH1 0x40 MLOAD DUP1 SWAP2 SUB SWAP1 REVERT JUMPDEST PUSH1 0x1 PUSH0 SWAP1 SLOAD SWAP1 PUSH2 0x100 EXP SWAP1 DIV PUSH20 0xFFFFFFFFFFFFFFFFFFFFFFFFFFFFFFFFFFFFFFFF AND PUSH20 0xFFFFFFFFFFFFFFFFFFFFFFFFFFFFFFFFFFFFFFFF AND PUSH4 0x23B872DD CALLER ADDRESS DUP7 PUSH1 0x40 MLOAD DUP5 PUSH4 0xFFFFFFFF AND PUSH1 0xE0 SHL DUP2 MSTORE PUSH1 0x4 ADD PUSH2 0x1120 SWAP4 SWAP3 SWAP2 SWAP1 PUSH2 0x2CBE JUMP JUMPDEST PUSH1 0x20 PUSH1 0x40 MLOAD DUP1 DUP4 SUB DUP2 PUSH0 DUP8 GAS CALL ISZERO DUP1 ISZERO PUSH2 0x113C JUMPI RETURNDATASIZE PUSH0 PUSH0 RETURNDATACOPY RETURNDATASIZE PUSH0 REVERT JUMPDEST POP POP POP POP PUSH1 0x40 MLOAD RETURNDATASIZE PUSH1 0x1F NOT PUSH1 0x1F DUP3 ADD AND DUP3 ADD DUP1 PUSH1 0x40 MSTORE POP DUP2 ADD SWAP1 PUSH2 0x1160 SWAP2 SWAP1 PUSH2 0x2963 JUMP JUMPDEST POP PUSH1 0x6 DUP4 PUSH2 0x116E SWAP2 SWAP1 PUSH2 0x2A56 JUMP JUMPDEST SWAP1 POP JUMPDEST PUSH1 0x5 PUSH0 DUP7 DUP2 MSTORE PUSH1 0x20 ADD SWAP1 DUP2 MSTORE PUSH1 0x20 ADD PUSH0 KECCAK256 CALLER SWAP1 DUP1 PUSH1 0x1 DUP2 SLOAD ADD DUP1 DUP3 SSTORE DUP1 SWAP2 POP POP PUSH1 0x1 SWAP1 SUB SWAP1 PUSH0 MSTORE PUSH1 0x20 PUSH0 KECCAK256 ADD PUSH0 SWAP1 SWAP2 SWAP1 SWAP2 SWAP1 SWAP2 PUSH2 0x100 EXP DUP2 SLOAD DUP2 PUSH20 0xFFFFFFFFFFFFFFFFFFFFFFFFFFFFFFFFFFFFFFFF MUL NOT AND SWAP1 DUP4 PUSH20 0xFFFFFFFFFFFFFFFFFFFFFFFFFFFFFFFFFFFFFFFF AND MUL OR SWAP1 SSTORE POP DUP3 PUSH1 0x6 PUSH0 DUP8 DUP2 MSTORE PUSH1 0x20 ADD SWAP1 DUP2 MSTORE PUSH1 0x20 ADD PUSH0 KECCAK256 PUSH0 CALLER PUSH20 0xFFFFFFFFFFFFFFFFFFFFFFFFFFFFFFFFFFFFFFFF AND PUSH20 0xFFFFFFFFFFFFFFFFFFFFFFFFFFFFFFFFFFFFFFFF AND DUP2 MSTORE PUSH1 0x20 ADD SWAP1 DUP2 MSTORE PUSH1 0x20 ADD PUSH0 KECCAK256 DUP2 SWAP1 SSTORE POP DUP4 ISZERO PUSH2 0x1256 JUMPI DUP1 DUP3 PUSH1 0x1 ADD PUSH0 DUP3 DUP3 SLOAD PUSH2 0x124A SWAP2 SWAP1 PUSH2 0x273C JUMP JUMPDEST SWAP3 POP POP DUP2 SWAP1 SSTORE POP PUSH2 0x1271 JUMP JUMPDEST DUP1 DUP3 PUSH1 0x2 ADD PUSH0 DUP3 DUP3 SLOAD PUSH2 0x1269 SWAP2 SWAP1 PUSH2 0x273C JUMP JUMPDEST SWAP3 POP POP DUP2 SWAP1 SSTORE POP JUMPDEST PUSH1 0x1 DUP3 PUSH1 0x8 ADD PUSH0 CALLER PUSH20 0xFFFFFFFFFFFFFFFFFFFFFFFFFFFFFFFFFFFFFFFF AND PUSH20 0xFFFFFFFFFFFFFFFFFFFFFFFFFFFFFFFFFFFFFFFF AND DUP2 MSTORE PUSH1 0x20 ADD SWAP1 DUP2 MSTORE PUSH1 0x20 ADD PUSH0 KECCAK256 PUSH0 PUSH2 0x100 EXP DUP2 SLOAD DUP2 PUSH1 0xFF MUL NOT AND SWAP1 DUP4 ISZERO ISZERO MUL OR SWAP1 SSTORE POP DUP5 CALLER PUSH20 0xFFFFFFFFFFFFFFFFFFFFFFFFFFFFFFFFFFFFFFFF AND PUSH32 0x877856338E13F63D0C36822FF0EF736B80934CD90574A3A5BC9262C39D217C46 DUP7 DUP5 PUSH1 0x40 MLOAD PUSH2 0x1311 SWAP3 SWAP2 SWAP1 PUSH2 0x2D5B JUMP JUMPDEST PUSH1 0x40 MLOAD DUP1 SWAP2 SUB SWAP1 LOG3 POP POP POP POP POP JUMP JUMPDEST PUSH1 0x2 SLOAD DUP2 JUMP JUMPDEST PUSH0 PUSH1 0x3 PUSH0 DUP4 DUP2 MSTORE PUSH1 0x20 ADD SWAP1 DUP2 MSTORE PUSH1 0x20 ADD PUSH0 KECCAK256 SWAP1 POP DUP1 PUSH1 0x4 ADD SLOAD TIMESTAMP GT PUSH2 0x1380 JUMPI PUSH1 0x40 MLOAD PUSH32 0x8C379A000000000000000000000000000000000000000000000000000000000 DUP2 MSTORE PUSH1 0x4 ADD PUSH2 0x1377 SWAP1 PUSH2 0x2DCC JUMP JUMPDEST PUSH1 0x40 MLOAD DUP1 SWAP2 SUB SWAP1 REVERT JUMPDEST DUP1 PUSH1 0x5 ADD PUSH1 0x2 SWAP1 SLOAD SWAP1 PUSH2 0x100 EXP SWAP1 DIV PUSH1 0xFF AND ISZERO PUSH2 0x13D2 JUMPI PUSH1 0x40 MLOAD PUSH32 0x8C379A000000000000000000000000000000000000000000000000000000000 DUP2 MSTORE PUSH1 0x4 ADD PUSH2 0x13C9 SWAP1 PUSH2 0x2E34 JUMP JUMPDEST PUSH1 0x40 MLOAD DUP1 SWAP2 SUB SWAP1 REVERT JUMPDEST DUP1 PUSH1 0x2 ADD SLOAD DUP2 PUSH1 0x1 ADD SLOAD GT PUSH2 0x141C JUMPI PUSH1 0x40 MLOAD PUSH32 0x8C379A000000000000000000000000000000000000000000000000000000000 DUP2 MSTORE PUSH1 0x4 ADD PUSH2 0x1413 SWAP1 PUSH2 0x2EC2 JUMP JUMPDEST PUSH1 0x40 MLOAD DUP1 SWAP2 SUB SWAP1 REVERT JUMPDEST PUSH2 0x1425 DUP3 PUSH2 0x1662 JUMP JUMPDEST PUSH2 0x1464 JUMPI PUSH1 0x40 MLOAD PUSH32 0x8C379A000000000000000000000000000000000000000000000000000000000 DUP2 MSTORE PUSH1 0x4 ADD PUSH2 0x145B SWAP1 PUSH2 0x2F2A JUMP JUMPDEST PUSH1 0x40 MLOAD DUP1 SWAP2 SUB SWAP1 REVERT JUMPDEST PUSH1 0x1 DUP2 PUSH1 0x5 ADD PUSH1 0x2 PUSH2 0x100 EXP DUP2 SLOAD DUP2 PUSH1 0xFF MUL NOT AND SWAP1 DUP4 ISZERO ISZERO MUL OR SWAP1 SSTORE POP PUSH0 PUSH1 0x5 DUP2 GT ISZERO PUSH2 0x1494 JUMPI PUSH2 0x1493 PUSH2 0x1FF7 JUMP JUMPDEST JUMPDEST DUP2 PUSH1 0x5 ADD PUSH0 SWAP1 SLOAD SWAP1 PUSH2 0x100 EXP SWAP1 DIV PUSH1 0xFF AND PUSH1 0x5 DUP2 GT ISZERO PUSH2 0x14B7 JUMPI PUSH2 0x14B6 PUSH2 0x1FF7 JUMP JUMPDEST JUMPDEST EQ DUP1 PUSH2 0x14F7 JUMPI POP PUSH1 0x1 PUSH1 0x5 DUP2 GT ISZERO PUSH2 0x14D2 JUMPI PUSH2 0x14D1 PUSH2 0x1FF7 JUMP JUMPDEST JUMPDEST DUP2 PUSH1 0x5 ADD PUSH0 SWAP1 SLOAD SWAP1 PUSH2 0x100 EXP SWAP1 DIV PUSH1 0xFF AND PUSH1 0x5 DUP2 GT ISZERO PUSH2 0x14F5 JUMPI PUSH2 0x14F4 PUSH2 0x1FF7 JUMP JUMPDEST JUMPDEST EQ JUMPDEST ISZERO PUSH2 0x150A JUMPI PUSH2 0x1505 DUP2 PUSH2 0x17B0 JUMP JUMPDEST PUSH2 0x1631 JUMP JUMPDEST PUSH1 0x2 PUSH1 0x5 DUP2 GT ISZERO PUSH2 0x151E JUMPI PUSH2 0x151D PUSH2 0x1FF7 JUMP JUMPDEST JUMPDEST DUP2 PUSH1 0x5 ADD PUSH0 SWAP1 SLOAD SWAP1 PUSH2 0x100 EXP SWAP1 DIV PUSH1 0xFF AND PUSH1 0x5 DUP2 GT ISZERO PUSH2 0x1541 JUMPI PUSH2 0x1540 PUSH2 0x1FF7 JUMP JUMPDEST JUMPDEST SUB PUSH2 0x1554 JUMPI PUSH2 0x154F DUP2 PUSH2 0x195C JUMP JUMPDEST PUSH2 0x1630 JUMP JUMPDEST PUSH1 0x3 PUSH1 0x5 DUP2 GT ISZERO PUSH2 0x1568 JUMPI PUSH2 0x1567 PUSH2 0x1FF7 JUMP JUMPDEST JUMPDEST DUP2 PUSH1 0x5 ADD PUSH0 SWAP1 SLOAD SWAP1 PUSH2 0x100 EXP SWAP1 DIV PUSH1 0xFF AND PUSH1 0x5 DUP2 GT ISZERO PUSH2 0x158B JUMPI PUSH2 0x158A PUSH2 0x1FF7 JUMP JUMPDEST JUMPDEST SUB PUSH2 0x159E JUMPI PUSH2 0x1599 DUP2 PUSH2 0x1A6A JUMP JUMPDEST PUSH2 0x162F JUMP JUMPDEST PUSH1 0x4 PUSH1 0x5 DUP2 GT ISZERO PUSH2 0x15B2 JUMPI PUSH2 0x15B1 PUSH2 0x1FF7 JUMP JUMPDEST JUMPDEST DUP2 PUSH1 0x5 ADD PUSH0 SWAP1 SLOAD SWAP1 PUSH2 0x100 EXP SWAP1 DIV PUSH1 0xFF AND PUSH1 0x5 DUP2 GT ISZERO PUSH2 0x15D5 JUMPI PUSH2 0x15D4 PUSH2 0x1FF7 JUMP JUMPDEST JUMPDEST SUB PUSH2 0x15E8 JUMPI PUSH2 0x15E3 DUP2 PUSH2 0x1B77 JUMP JUMPDEST PUSH2 0x162E JUMP JUMPDEST PUSH1 0x5 DUP1 DUP2 GT ISZERO PUSH2 0x15FB JUMPI PUSH2 0x15FA PUSH2 0x1FF7 JUMP JUMPDEST JUMPDEST DUP2 PUSH1 0x5 ADD PUSH0 SWAP1 SLOAD SWAP1 PUSH2 0x100 EXP SWAP1 DIV PUSH1 0xFF AND PUSH1 0x5 DUP2 GT ISZERO PUSH2 0x161E JUMPI PUSH2 0x161D PUSH2 0x1FF7 JUMP JUMPDEST JUMPDEST SUB PUSH2 0x162D JUMPI PUSH2 0x162C DUP2 PUSH2 0x1B7A JUMP JUMPDEST JUMPDEST JUMPDEST JUMPDEST JUMPDEST JUMPDEST DUP2 PUSH32 0x712AE1383F79AC853F8D882153778E0260EF8F03B504E2866E0593E04D2B291F PUSH1 0x40 MLOAD PUSH1 0x40 MLOAD DUP1 SWAP2 SUB SWAP1 LOG2 POP POP JUMP JUMPDEST PUSH0 PUSH0 PUSH1 0x3 PUSH0 DUP5 DUP2 MSTORE PUSH1 0x20 ADD SWAP1 DUP2 MSTORE PUSH1 0x20 ADD PUSH0 KECCAK256 SWAP1 POP PUSH0 DUP2 PUSH1 0x2 ADD SLOAD DUP3 PUSH1 0x1 ADD SLOAD PUSH2 0x168C SWAP2 SWAP1 PUSH2 0x273C JUMP JUMPDEST SWAP1 POP PUSH0 DUP2 SUB PUSH2 0x169F JUMPI PUSH0 SWAP3 POP POP POP PUSH2 0x17AB JUMP JUMPDEST PUSH0 PUSH1 0x2 DUP2 GT ISZERO PUSH2 0x16B2 JUMPI PUSH2 0x16B1 PUSH2 0x1FF7 JUMP JUMPDEST JUMPDEST DUP3 PUSH1 0x5 ADD PUSH1 0x1 SWAP1 SLOAD SWAP1 PUSH2 0x100 EXP SWAP1 DIV PUSH1 0xFF AND PUSH1 0x2 DUP2 GT ISZERO PUSH2 0x16D6 JUMPI PUSH2 0x16D5 PUSH2 0x1FF7 JUMP JUMPDEST JUMPDEST SUB PUSH2 0x16EF JUMPI DUP2 PUSH1 0x2 ADD SLOAD DUP3 PUSH1 0x1 ADD SLOAD GT SWAP3 POP POP POP PUSH2 0x17AB JUMP JUMPDEST PUSH1 0x1 PUSH1 0x2 DUP2 GT ISZERO PUSH2 0x1703 JUMPI PUSH2 0x1702 PUSH2 0x1FF7 JUMP JUMPDEST JUMPDEST DUP3 PUSH1 0x5 ADD PUSH1 0x1 SWAP1 SLOAD SWAP1 PUSH2 0x100 EXP SWAP1 DIV PUSH1 0xFF AND PUSH1 0x2 DUP2 GT ISZERO PUSH2 0x1727 JUMPI PUSH2 0x1726 PUSH2 0x1FF7 JUMP JUMPDEST JUMPDEST SUB PUSH2 0x1755 JUMPI PUSH1 0x3 PUSH1 0x2 DUP3 PUSH2 0x173B SWAP2 SWAP1 PUSH2 0x26FB JUMP JUMPDEST PUSH2 0x1745 SWAP2 SWAP1 PUSH2 0x2A56 JUMP JUMPDEST DUP3 PUSH1 0x1 ADD SLOAD LT ISZERO SWAP3 POP POP POP PUSH2 0x17AB JUMP JUMPDEST PUSH1 0x2 DUP1 DUP2 GT ISZERO PUSH2 0x1768 JUMPI PUSH2 0x1767 PUSH2 0x1FF7 JUMP JUMPDEST JUMPDEST DUP3 PUSH1 0x5 ADD PUSH1 0x1 SWAP1 SLOAD SWAP1 PUSH2 0x100 EXP SWAP1 DIV PUSH1 0xFF AND PUSH1 0x2 DUP2 GT ISZERO PUSH2 0x178C JUMPI PUSH2 0x178B PUSH2 0x1FF7 JUMP JUMPDEST JUMPDEST SUB PUSH2 0x17A5 JUMPI DUP2 PUSH1 0x2 ADD SLOAD DUP3 PUSH1 0x1 ADD SLOAD GT SWAP3 POP POP POP PUSH2 0x17AB JUMP JUMPDEST PUSH0 SWAP3 POP POP POP JUMPDEST SWAP2 SWAP1 POP JUMP JUMPDEST PUSH0 PUSH20 0xFFFFFFFFFFFFFFFFFFFFFFFFFFFFFFFFFFFFFFFF AND DUP2 PUSH1 0x5 ADD PUSH1 0x3 SWAP1 SLOAD SWAP1 PUSH2 0x100 EXP SWAP1 DIV PUSH20 0xFFFFFFFFFFFFFFFFFFFFFFFFFFFFFFFFFFFFFFFF AND PUSH20 0xFFFFFFFFFFFFFFFFFFFFFFFFFFFFFFFFFFFFFFFF AND SUB PUSH2 0x1842 JUMPI PUSH1 0x40 MLOAD PUSH32 0x8C379A000000000000000000000000000000000000000000000000000000000 DUP2 MSTORE PUSH1 0x4 ADD PUSH2 0x1839 SWAP1 PUSH2 0x2F92 JUMP JUMPDEST PUSH1 0x40 MLOAD DUP1 SWAP2 SUB SWAP1 REVERT JUMPDEST PUSH0 DUP2 PUSH1 0x7 ADD SLOAD GT PUSH2 0x1888 JUMPI PUSH1 0x40 MLOAD PUSH32 0x8C379A000000000000000000000000000000000000000000000000000000000 DUP2 MSTORE PUSH1 0x4 ADD PUSH2 0x187F SWAP1 PUSH2 0x2FFA JUMP JUMPDEST PUSH1 0x40 MLOAD DUP1 SWAP2 SUB SWAP1 REVERT JUMPDEST PUSH0 DUP2 PUSH1 0x5 ADD PUSH1 0x3 SWAP1 SLOAD SWAP1 PUSH2 0x100 EXP SWAP1 DIV PUSH20 0xFFFFFFFFFFFFFFFFFFFFFFFFFFFFFFFFFFFFFFFF AND PUSH20 0xFFFFFFFFFFFFFFFFFFFFFFFFFFFFFFFFFFFFFFFF AND DUP3 PUSH1 0x7 ADD SLOAD PUSH1 0x40 MLOAD PUSH2 0x18D5 SWAP1 PUSH2 0x3045 JUMP JUMPDEST PUSH0 PUSH1 0x40 MLOAD DUP1 DUP4 SUB DUP2 DUP6 DUP8 GAS CALL SWAP3 POP POP POP RETURNDATASIZE DUP1 PUSH0 DUP2 EQ PUSH2 0x190F JUMPI PUSH1 0x40 MLOAD SWAP2 POP PUSH1 0x1F NOT PUSH1 0x3F RETURNDATASIZE ADD AND DUP3 ADD PUSH1 0x40 MSTORE RETURNDATASIZE DUP3 MSTORE RETURNDATASIZE PUSH0 PUSH1 0x20 DUP5 ADD RETURNDATACOPY PUSH2 0x1914 JUMP JUMPDEST PUSH1 0x60 SWAP2 POP JUMPDEST POP POP SWAP1 POP DUP1 PUSH2 0x1958 JUMPI PUSH1 0x40 MLOAD PUSH32 0x8C379A000000000000000000000000000000000000000000000000000000000 DUP2 MSTORE PUSH1 0x4 ADD PUSH2 0x194F SWAP1 PUSH2 0x30A3 JUMP JUMPDEST PUSH1 0x40 MLOAD DUP1 SWAP2 SUB SWAP1 REVERT JUMPDEST POP POP JUMP JUMPDEST PUSH0 PUSH20 0xFFFFFFFFFFFFFFFFFFFFFFFFFFFFFFFFFFFFFFFF AND DUP2 PUSH1 0x5 ADD PUSH1 0x3 SWAP1 SLOAD SWAP1 PUSH2 0x100 EXP SWAP1 DIV PUSH20 0xFFFFFFFFFFFFFFFFFFFFFFFFFFFFFFFFFFFFFFFF AND PUSH20 0xFFFFFFFFFFFFFFFFFFFFFFFFFFFFFFFFFFFFFFFF AND SUB PUSH2 0x19EE JUMPI PUSH1 0x40 MLOAD PUSH32 0x8C379A000000000000000000000000000000000000000000000000000000000 DUP2 MSTORE PUSH1 0x4 ADD PUSH2 0x19E5 SWAP1 PUSH2 0x310B JUMP JUMPDEST PUSH1 0x40 MLOAD DUP1 SWAP2 SUB SWAP1 REVERT JUMPDEST PUSH1 0x1 PUSH1 0x4 PUSH0 DUP4 PUSH1 0x5 ADD PUSH1 0x3 SWAP1 SLOAD SWAP1 PUSH2 0x100 EXP SWAP1 DIV PUSH20 0xFFFFFFFFFFFFFFFFFFFFFFFFFFFFFFFFFFFFFFFF AND PUSH20 0xFFFFFFFFFFFFFFFFFFFFFFFFFFFFFFFFFFFFFFFF AND PUSH20 0xFFFFFFFFFFFFFFFFFFFFFFFFFFFFFFFFFFFFFFFF AND DUP2 MSTORE PUSH1 0x20 ADD SWAP1 DUP2 MSTORE PUSH1 0x20 ADD PUSH0 KECCAK256 PUSH0 PUSH2 0x100 EXP DUP2 SLOAD DUP2 PUSH1 0xFF MUL NOT AND SWAP1 DUP4 ISZERO ISZERO MUL OR SWAP1 SSTORE POP POP JUMP JUMPDEST PUSH0 PUSH20 0xFFFFFFFFFFFFFFFFFFFFFFFFFFFFFFFFFFFFFFFF AND DUP2 PUSH1 0x5 ADD PUSH1 0x3 SWAP1 SLOAD SWAP1 PUSH2 0x100 EXP SWAP1 DIV PUSH20 0xFFFFFFFFFFFFFFFFFFFFFFFFFFFFFFFFFFFFFFFF AND PUSH20 0xFFFFFFFFFFFFFFFFFFFFFFFFFFFFFFFFFFFFFFFF AND SUB PUSH2 0x1AFC JUMPI PUSH1 0x40 MLOAD PUSH32 0x8C379A000000000000000000000000000000000000000000000000000000000 DUP2 MSTORE PUSH1 0x4 ADD PUSH2 0x1AF3 SWAP1 PUSH2 0x310B JUMP JUMPDEST PUSH1 0x40 MLOAD DUP1 SWAP2 SUB SWAP1 REVERT JUMPDEST PUSH0 PUSH1 0x4 PUSH0 DUP4 PUSH1 0x5 ADD PUSH1 0x3 SWAP1 SLOAD SWAP1 PUSH2 0x100 EXP SWAP1 DIV PUSH20 0xFFFFFFFFFFFFFFFFFFFFFFFFFFFFFFFFFFFFFFFF AND PUSH20 0xFFFFFFFFFFFFFFFFFFFFFFFFFFFFFFFFFFFFFFFF AND PUSH20 0xFFFFFFFFFFFFFFFFFFFFFFFFFFFFFFFFFFFFFFFF AND DUP2 MSTORE PUSH1 0x20 ADD SWAP1 DUP2 MSTORE PUSH1 0x20 ADD PUSH0 KECCAK256 PUSH0 PUSH2 0x100 EXP DUP2 SLOAD DUP2 PUSH1 0xFF MUL NOT AND SWAP1 DUP4 ISZERO ISZERO MUL OR SWAP1 SSTORE POP POP JUMP JUMPDEST POP JUMP JUMPDEST POP JUMP JUMPDEST PUSH0 PUSH1 0x40 MLOAD SWAP1 POP SWAP1 JUMP JUMPDEST PUSH0 PUSH0 REVERT JUMPDEST PUSH0 PUSH0 REVERT JUMPDEST PUSH0 DUP2 SWAP1 POP SWAP2 SWAP1 POP JUMP JUMPDEST PUSH2 0x1BA0 DUP2 PUSH2 0x1B8E JUMP JUMPDEST DUP2 EQ PUSH2 0x1BAA JUMPI PUSH0 PUSH0 REVERT JUMPDEST POP JUMP JUMPDEST PUSH0 DUP2 CALLDATALOAD SWAP1 POP PUSH2 0x1BBB DUP2 PUSH2 0x1B97 JUMP JUMPDEST SWAP3 SWAP2 POP POP JUMP JUMPDEST PUSH0 PUSH20 0xFFFFFFFFFFFFFFFFFFFFFFFFFFFFFFFFFFFFFFFF DUP3 AND SWAP1 POP SWAP2 SWAP1 POP JUMP JUMPDEST PUSH0 PUSH2 0x1BEA DUP3 PUSH2 0x1BC1 JUMP JUMPDEST SWAP1 POP SWAP2 SWAP1 POP JUMP JUMPDEST PUSH2 0x1BFA DUP2 PUSH2 0x1BE0 JUMP JUMPDEST DUP2 EQ PUSH2 0x1C04 JUMPI PUSH0 PUSH0 REVERT JUMPDEST POP JUMP JUMPDEST PUSH0 DUP2 CALLDATALOAD SWAP1 POP PUSH2 0x1C15 DUP2 PUSH2 0x1BF1 JUMP JUMPDEST SWAP3 SWAP2 POP POP JUMP JUMPDEST PUSH0 PUSH0 PUSH1 0x40 DUP4 DUP6 SUB SLT ISZERO PUSH2 0x1C31 JUMPI PUSH2 0x1C30 PUSH2 0x1B86 JUMP JUMPDEST JUMPDEST PUSH0 PUSH2 0x1C3E DUP6 DUP3 DUP7 ADD PUSH2 0x1BAD JUMP JUMPDEST SWAP3 POP POP PUSH1 0x20 PUSH2 0x1C4F DUP6 DUP3 DUP7 ADD PUSH2 0x1C07 JUMP JUMPDEST SWAP2 POP POP SWAP3 POP SWAP3 SWAP1 POP JUMP JUMPDEST PUSH0 DUP2 ISZERO ISZERO SWAP1 POP SWAP2 SWAP1 POP JUMP JUMPDEST PUSH2 0x1C6D DUP2 PUSH2 0x1C59 JUMP JUMPDEST DUP3 MSTORE POP POP JUMP JUMPDEST PUSH0 PUSH1 0x20 DUP3 ADD SWAP1 POP PUSH2 0x1C86 PUSH0 DUP4 ADD DUP5 PUSH2 0x1C64 JUMP JUMPDEST SWAP3 SWAP2 POP POP JUMP JUMPDEST PUSH2 0x1C95 DUP2 PUSH2 0x1B8E JUMP JUMPDEST DUP3 MSTORE POP POP JUMP JUMPDEST PUSH0 PUSH1 0x20 DUP3 ADD SWAP1 POP PUSH2 0x1CAE PUSH0 DUP4 ADD DUP5 PUSH2 0x1C8C JUMP JUMPDEST SWAP3 SWAP2 POP POP JUMP JUMPDEST PUSH0 PUSH0 REVERT JUMPDEST PUSH0 PUSH0 REVERT JUMPDEST PUSH0 PUSH1 0x1F NOT PUSH1 0x1F DUP4 ADD AND SWAP1 POP SWAP2 SWAP1 POP JUMP JUMPDEST PUSH32 0x4E487B7100000000000000000000000000000000000000000000000000000000 PUSH0 MSTORE PUSH1 0x41 PUSH1 0x4 MSTORE PUSH1 0x24 PUSH0 REVERT JUMPDEST PUSH2 0x1D02 DUP3 PUSH2 0x1CBC JUMP JUMPDEST DUP2 ADD DUP2 DUP2 LT PUSH8 0xFFFFFFFFFFFFFFFF DUP3 GT OR ISZERO PUSH2 0x1D21 JUMPI PUSH2 0x1D20 PUSH2 0x1CCC JUMP JUMPDEST JUMPDEST DUP1 PUSH1 0x40 MSTORE POP POP POP JUMP JUMPDEST PUSH0 PUSH2 0x1D33 PUSH2 0x1B7D JUMP JUMPDEST SWAP1 POP PUSH2 0x1D3F DUP3 DUP3 PUSH2 0x1CF9 JUMP JUMPDEST SWAP2 SWAP1 POP JUMP JUMPDEST PUSH0 PUSH8 0xFFFFFFFFFFFFFFFF DUP3 GT ISZERO PUSH2 0x1D5E JUMPI PUSH2 0x1D5D PUSH2 0x1CCC JUMP JUMPDEST JUMPDEST PUSH2 0x1D67 DUP3 PUSH2 0x1CBC JUMP JUMPDEST SWAP1 POP PUSH1 0x20 DUP2 ADD SWAP1 POP SWAP2 SWAP1 POP JUMP JUMPDEST DUP3 DUP2 DUP4 CALLDATACOPY PUSH0 DUP4 DUP4 ADD MSTORE POP POP POP JUMP JUMPDEST PUSH0 PUSH2 0x1D94 PUSH2 0x1D8F DUP5 PUSH2 0x1D44 JUMP JUMPDEST PUSH2 0x1D2A JUMP JUMPDEST SWAP1 POP DUP3 DUP2 MSTORE PUSH1 0x20 DUP2 ADD DUP5 DUP5 DUP5 ADD GT ISZERO PUSH2 0x1DB0 JUMPI PUSH2 0x1DAF PUSH2 0x1CB8 JUMP JUMPDEST JUMPDEST PUSH2 0x1DBB DUP5 DUP3 DUP6 PUSH2 0x1D74 JUMP JUMPDEST POP SWAP4 SWAP3 POP POP POP JUMP JUMPDEST PUSH0 DUP3 PUSH1 0x1F DUP4 ADD SLT PUSH2 0x1DD7 JUMPI PUSH2 0x1DD6 PUSH2 0x1CB4 JUMP JUMPDEST JUMPDEST DUP2 CALLDATALOAD PUSH2 0x1DE7 DUP5 DUP3 PUSH1 0x20 DUP7 ADD PUSH2 0x1D82 JUMP JUMPDEST SWAP2 POP POP SWAP3 SWAP2 POP POP JUMP JUMPDEST PUSH1 0x6 DUP2 LT PUSH2 0x1DFC JUMPI PUSH0 PUSH0 REVERT JUMPDEST POP JUMP JUMPDEST PUSH0 DUP2 CALLDATALOAD SWAP1 POP PUSH2 0x1E0D DUP2 PUSH2 0x1DF0 JUMP JUMPDEST SWAP3 SWAP2 POP POP JUMP JUMPDEST PUSH1 0x3 DUP2 LT PUSH2 0x1E1F JUMPI PUSH0 PUSH0 REVERT JUMPDEST POP JUMP JUMPDEST PUSH0 DUP2 CALLDATALOAD SWAP1 POP PUSH2 0x1E30 DUP2 PUSH2 0x1E13 JUMP JUMPDEST SWAP3 SWAP2 POP POP JUMP JUMPDEST PUSH0 PUSH0 PUSH0 PUSH0 PUSH0 PUSH0 PUSH1 0xC0 DUP8 DUP10 SUB SLT ISZERO PUSH2 0x1E50 JUMPI PUSH2 0x1E4F PUSH2 0x1B86 JUMP JUMPDEST JUMPDEST PUSH0 DUP8 ADD CALLDATALOAD PUSH8 0xFFFFFFFFFFFFFFFF DUP2 GT ISZERO PUSH2 0x1E6D JUMPI PUSH2 0x1E6C PUSH2 0x1B8A JUMP JUMPDEST JUMPDEST PUSH2 0x1E79 DUP10 DUP3 DUP11 ADD PUSH2 0x1DC3 JUMP JUMPDEST SWAP7 POP POP PUSH1 0x20 PUSH2 0x1E8A DUP10 DUP3 DUP11 ADD PUSH2 0x1DFF JUMP JUMPDEST SWAP6 POP POP PUSH1 0x40 PUSH2 0x1E9B DUP10 DUP3 DUP11 ADD PUSH2 0x1E22 JUMP JUMPDEST SWAP5 POP POP PUSH1 0x60 PUSH2 0x1EAC DUP10 DUP3 DUP11 ADD PUSH2 0x1C07 JUMP JUMPDEST SWAP4 POP POP PUSH1 0x80 PUSH2 0x1EBD DUP10 DUP3 DUP11 ADD PUSH2 0x1BAD JUMP JUMPDEST SWAP3 POP POP PUSH1 0xA0 PUSH2 0x1ECE DUP10 DUP3 DUP11 ADD PUSH2 0x1BAD JUMP JUMPDEST SWAP2 POP POP SWAP3 SWAP6 POP SWAP3 SWAP6 POP SWAP3 SWAP6 JUMP JUMPDEST PUSH0 PUSH1 0x20 DUP3 DUP5 SUB SLT ISZERO PUSH2 0x1EF0 JUMPI PUSH2 0x1EEF PUSH2 0x1B86 JUMP JUMPDEST JUMPDEST PUSH0 PUSH2 0x1EFD DUP5 DUP3 DUP6 ADD PUSH2 0x1BAD JUMP JUMPDEST SWAP2 POP POP SWAP3 SWAP2 POP POP JUMP JUMPDEST PUSH0 PUSH1 0x20 DUP3 DUP5 SUB SLT ISZERO PUSH2 0x1F1B JUMPI PUSH2 0x1F1A PUSH2 0x1B86 JUMP JUMPDEST JUMPDEST PUSH0 PUSH2 0x1F28 DUP5 DUP3 DUP6 ADD PUSH2 0x1C07 JUMP JUMPDEST SWAP2 POP POP SWAP3 SWAP2 POP POP JUMP JUMPDEST PUSH0 PUSH0 PUSH1 0x40 DUP4 DUP6 SUB SLT ISZERO PUSH2 0x1F47 JUMPI PUSH2 0x1F46 PUSH2 0x1B86 JUMP JUMPDEST JUMPDEST PUSH0 PUSH2 0x1F54 DUP6 DUP3 DUP7 ADD PUSH2 0x1BAD JUMP JUMPDEST SWAP3 POP POP PUSH1 0x20 PUSH2 0x1F65 DUP6 DUP3 DUP7 ADD PUSH2 0x1BAD JUMP JUMPDEST SWAP2 POP POP SWAP3 POP SWAP3 SWAP1 POP JUMP JUMPDEST PUSH2 0x1F78 DUP2 PUSH2 0x1BE0 JUMP JUMPDEST DUP3 MSTORE POP POP JUMP JUMPDEST PUSH0 PUSH1 0x20 DUP3 ADD SWAP1 POP PUSH2 0x1F91 PUSH0 DUP4 ADD DUP5 PUSH2 0x1F6F JUMP JUMPDEST SWAP3 SWAP2 POP POP JUMP JUMPDEST PUSH0 DUP2 MLOAD SWAP1 POP SWAP2 SWAP1 POP JUMP JUMPDEST PUSH0 DUP3 DUP3 MSTORE PUSH1 0x20 DUP3 ADD SWAP1 POP SWAP3 SWAP2 POP POP JUMP JUMPDEST DUP3 DUP2 DUP4 MCOPY PUSH0 DUP4 DUP4 ADD MSTORE POP POP POP JUMP JUMPDEST PUSH0 PUSH2 0x1FC9 DUP3 PUSH2 0x1F97 JUMP JUMPDEST PUSH2 0x1FD3 DUP2 DUP6 PUSH2 0x1FA1 JUMP JUMPDEST SWAP4 POP PUSH2 0x1FE3 DUP2 DUP6 PUSH1 0x20 DUP7 ADD PUSH2 0x1FB1 JUMP JUMPDEST PUSH2 0x1FEC DUP2 PUSH2 0x1CBC JUMP JUMPDEST DUP5 ADD SWAP2 POP POP SWAP3 SWAP2 POP POP JUMP JUMPDEST PUSH32 0x4E487B7100000000000000000000000000000000000000000000000000000000 PUSH0 MSTORE PUSH1 0x21 PUSH1 0x4 MSTORE PUSH1 0x24 PUSH0 REVERT JUMPDEST PUSH1 0x6 DUP2 LT PUSH2 0x2035 JUMPI PUSH2 0x2034 PUSH2 0x1FF7 JUMP JUMPDEST JUMPDEST POP JUMP JUMPDEST PUSH0 DUP2 SWAP1 POP PUSH2 0x2045 DUP3 PUSH2 0x2024 JUMP JUMPDEST SWAP2 SWAP1 POP JUMP JUMPDEST PUSH0 PUSH2 0x2054 DUP3 PUSH2 0x2038 JUMP JUMPDEST SWAP1 POP SWAP2 SWAP1 POP JUMP JUMPDEST PUSH2 0x2064 DUP2 PUSH2 0x204A JUMP JUMPDEST DUP3 MSTORE POP POP JUMP JUMPDEST PUSH0 PUSH2 0x100 DUP3 ADD SWAP1 POP DUP2 DUP2 SUB PUSH0 DUP4 ADD MSTORE PUSH2 0x2083 DUP2 DUP12 PUSH2 0x1FBF JUMP JUMPDEST SWAP1 POP PUSH2 0x2092 PUSH1 0x20 DUP4 ADD DUP11 PUSH2 0x1C8C JUMP JUMPDEST PUSH2 0x209F PUSH1 0x40 DUP4 ADD DUP10 PUSH2 0x1C8C JUMP JUMPDEST PUSH2 0x20AC PUSH1 0x60 DUP4 ADD DUP9 PUSH2 0x1C8C JUMP JUMPDEST PUSH2 0x20B9 PUSH1 0x80 DUP4 ADD DUP8 PUSH2 0x1C8C JUMP JUMPDEST PUSH2 0x20C6 PUSH1 0xA0 DUP4 ADD DUP7 PUSH2 0x1C8C JUMP JUMPDEST PUSH2 0x20D3 PUSH1 0xC0 DUP4 ADD DUP6 PUSH2 0x205B JUMP JUMPDEST PUSH2 0x20E0 PUSH1 0xE0 DUP4 ADD DUP5 PUSH2 0x1C64 JUMP JUMPDEST SWAP10 SWAP9 POP POP POP POP POP POP POP POP POP JUMP JUMPDEST PUSH2 0x20F6 DUP2 PUSH2 0x1C59 JUMP JUMPDEST DUP2 EQ PUSH2 0x2100 JUMPI PUSH0 PUSH0 REVERT JUMPDEST POP JUMP JUMPDEST PUSH0 DUP2 CALLDATALOAD SWAP1 POP PUSH2 0x2111 DUP2 PUSH2 0x20ED JUMP JUMPDEST SWAP3 SWAP2 POP POP JUMP JUMPDEST PUSH0 PUSH0 PUSH0 PUSH1 0x60 DUP5 DUP7 SUB SLT ISZERO PUSH2 0x212E JUMPI PUSH2 0x212D PUSH2 0x1B86 JUMP JUMPDEST JUMPDEST PUSH0 PUSH2 0x213B DUP7 DUP3 DUP8 ADD PUSH2 0x1BAD JUMP JUMPDEST SWAP4 POP POP PUSH1 0x20 PUSH2 0x214C DUP7 DUP3 DUP8 ADD PUSH2 0x2103 JUMP JUMPDEST SWAP3 POP POP PUSH1 0x40 PUSH2 0x215D DUP7 DUP3 DUP8 ADD PUSH2 0x1BAD JUMP JUMPDEST SWAP2 POP POP SWAP3 POP SWAP3 POP SWAP3 JUMP JUMPDEST PUSH32 0x4E6F7420612044414F206D656D62657200000000000000000000000000000000 PUSH0 DUP3 ADD MSTORE POP JUMP JUMPDEST PUSH0 PUSH2 0x219B PUSH1 0x10 DUP4 PUSH2 0x1FA1 JUMP JUMPDEST SWAP2 POP PUSH2 0x21A6 DUP3 PUSH2 0x2167 JUMP JUMPDEST PUSH1 0x20 DUP3 ADD SWAP1 POP SWAP2 SWAP1 POP JUMP JUMPDEST PUSH0 PUSH1 0x20 DUP3 ADD SWAP1 POP DUP2 DUP2 SUB PUSH0 DUP4 ADD MSTORE PUSH2 0x21C8 DUP2 PUSH2 0x218F JUMP JUMPDEST SWAP1 POP SWAP2 SWAP1 POP JUMP JUMPDEST PUSH32 0x4475726174696F6E206D757374206265203E2030000000000000000000000000 PUSH0 DUP3 ADD MSTORE POP JUMP JUMPDEST PUSH0 PUSH2 0x2203 PUSH1 0x14 DUP4 PUSH2 0x1FA1 JUMP JUMPDEST SWAP2 POP PUSH2 0x220E DUP3 PUSH2 0x21CF JUMP JUMPDEST PUSH1 0x20 DUP3 ADD SWAP1 POP SWAP2 SWAP1 POP JUMP JUMPDEST PUSH0 PUSH1 0x20 DUP3 ADD SWAP1 POP DUP2 DUP2 SUB PUSH0 DUP4 ADD MSTORE PUSH2 0x2230 DUP2 PUSH2 0x21F7 JUMP JUMPDEST SWAP1 POP SWAP2 SWAP1 POP JUMP JUMPDEST PUSH32 0x4465736372697074696F6E207265717569726564000000000000000000000000 PUSH0 DUP3 ADD MSTORE POP JUMP JUMPDEST PUSH0 PUSH2 0x226B PUSH1 0x14 DUP4 PUSH2 0x1FA1 JUMP JUMPDEST SWAP2 POP PUSH2 0x2276 DUP3 PUSH2 0x2237 JUMP JUMPDEST PUSH1 0x20 DUP3 ADD SWAP1 POP SWAP2 SWAP1 POP JUMP JUMPDEST PUSH0 PUSH1 0x20 DUP3 ADD SWAP1 POP DUP2 DUP2 SUB PUSH0 DUP4 ADD MSTORE PUSH2 0x2298 DUP2 PUSH2 0x225F JUMP JUMPDEST SWAP1 POP SWAP2 SWAP1 POP JUMP JUMPDEST PUSH32 0x4E487B7100000000000000000000000000000000000000000000000000000000 PUSH0 MSTORE PUSH1 0x11 PUSH1 0x4 MSTORE PUSH1 0x24 PUSH0 REVERT JUMPDEST PUSH0 PUSH2 0x22D6 DUP3 PUSH2 0x1B8E JUMP JUMPDEST SWAP2 POP PUSH32 0xFFFFFFFFFFFFFFFFFFFFFFFFFFFFFFFFFFFFFFFFFFFFFFFFFFFFFFFFFFFFFFFF DUP3 SUB PUSH2 0x2308 JUMPI PUSH2 0x2307 PUSH2 0x229F JUMP JUMPDEST JUMPDEST PUSH1 0x1 DUP3 ADD SWAP1 POP SWAP2 SWAP1 POP JUMP JUMPDEST PUSH32 0x4E487B7100000000000000000000000000000000000000000000000000000000 PUSH0 MSTORE PUSH1 0x22 PUSH1 0x4 MSTORE PUSH1 0x24 PUSH0 REVERT JUMPDEST PUSH0 PUSH1 0x2 DUP3 DIV SWAP1 POP PUSH1 0x1 DUP3 AND DUP1 PUSH2 0x2357 JUMPI PUSH1 0x7F DUP3 AND SWAP2 POP JUMPDEST PUSH1 0x20 DUP3 LT DUP2 SUB PUSH2 0x236A JUMPI PUSH2 0x2369 PUSH2 0x2313 JUMP JUMPDEST JUMPDEST POP SWAP2 SWAP1 POP JUMP JUMPDEST PUSH0 DUP2 SWAP1 POP DUP2 PUSH0 MSTORE PUSH1 0x20 PUSH0 KECCAK256 SWAP1 POP SWAP2 SWAP1 POP JUMP JUMPDEST PUSH0 PUSH1 0x20 PUSH1 0x1F DUP4 ADD DIV SWAP1 POP SWAP2 SWAP1 POP JUMP JUMPDEST PUSH0 DUP3 DUP3 SHL SWAP1 POP SWAP3 SWAP2 POP POP JUMP JUMPDEST PUSH0 PUSH1 0x8 DUP4 MUL PUSH2 0x23CC PUSH32 0xFFFFFFFFFFFFFFFFFFFFFFFFFFFFFFFFFFFFFFFFFFFFFFFFFFFFFFFFFFFFFFFF DUP3 PUSH2 0x2391 JUMP JUMPDEST PUSH2 0x23D6 DUP7 DUP4 PUSH2 0x2391 JUMP JUMPDEST SWAP6 POP DUP1 NOT DUP5 AND SWAP4 POP DUP1 DUP7 AND DUP5 OR SWAP3 POP POP POP SWAP4 SWAP3 POP POP POP JUMP JUMPDEST PUSH0 DUP2 SWAP1 POP SWAP2 SWAP1 POP JUMP JUMPDEST PUSH0 PUSH2 0x2411 PUSH2 0x240C PUSH2 0x2407 DUP5 PUSH2 0x1B8E JUMP JUMPDEST PUSH2 0x23EE JUMP JUMPDEST PUSH2 0x1B8E JUMP JUMPDEST SWAP1 POP SWAP2 SWAP1 POP JUMP JUMPDEST PUSH0 DUP2 SWAP1 POP SWAP2 SWAP1 POP JUMP JUMPDEST PUSH2 0x242A DUP4 PUSH2 0x23F7 JUMP JUMPDEST PUSH2 0x243E PUSH2 0x2436 DUP3 PUSH2 0x2418 JUMP JUMPDEST DUP5 DUP5 SLOAD PUSH2 0x239D JUMP JUMPDEST DUP3 SSTORE POP POP POP POP JUMP JUMPDEST PUSH0 PUSH0 SWAP1 POP SWAP1 JUMP JUMPDEST PUSH2 0x2455 PUSH2 0x2446 JUMP JUMPDEST PUSH2 0x2460 DUP2 DUP5 DUP5 PUSH2 0x2421 JUMP JUMPDEST POP POP POP JUMP JUMPDEST JUMPDEST DUP2 DUP2 LT ISZERO PUSH2 0x2483 JUMPI PUSH2 0x2478 PUSH0 DUP3 PUSH2 0x244D JUMP JUMPDEST PUSH1 0x1 DUP2 ADD SWAP1 POP PUSH2 0x2466 JUMP JUMPDEST POP POP JUMP JUMPDEST PUSH1 0x1F DUP3 GT ISZERO PUSH2 0x24C8 JUMPI PUSH2 0x2499 DUP2 PUSH2 0x2370 JUMP JUMPDEST PUSH2 0x24A2 DUP5 PUSH2 0x2382 JUMP JUMPDEST DUP2 ADD PUSH1 0x20 DUP6 LT ISZERO PUSH2 0x24B1 JUMPI DUP2 SWAP1 POP JUMPDEST PUSH2 0x24C5 PUSH2 0x24BD DUP6 PUSH2 0x2382 JUMP JUMPDEST DUP4 ADD DUP3 PUSH2 0x2465 JUMP JUMPDEST POP POP JUMPDEST POP POP POP JUMP JUMPDEST PUSH0 DUP3 DUP3 SHR SWAP1 POP SWAP3 SWAP2 POP POP JUMP JUMPDEST PUSH0 PUSH2 0x24E8 PUSH0 NOT DUP5 PUSH1 0x8 MUL PUSH2 0x24CD JUMP JUMPDEST NOT DUP1 DUP4 AND SWAP2 POP POP SWAP3 SWAP2 POP POP JUMP JUMPDEST PUSH0 PUSH2 0x2500 DUP4 DUP4 PUSH2 0x24D9 JUMP JUMPDEST SWAP2 POP DUP3 PUSH1 0x2 MUL DUP3 OR SWAP1 POP SWAP3 SWAP2 POP POP JUMP JUMPDEST PUSH2 0x2519 DUP3 PUSH2 0x1F97 JUMP JUMPDEST PUSH8 0xFFFFFFFFFFFFFFFF DUP2 GT ISZERO PUSH2 0x2532 JUMPI PUSH2 0x2531 PUSH2 0x1CCC JUMP JUMPDEST JUMPDEST PUSH2 0x253C DUP3 SLOAD PUSH2 0x2340 JUMP JUMPDEST PUSH2 0x2547 DUP3 DUP3 DUP6 PUSH2 0x2487 JUMP JUMPDEST PUSH0 PUSH1 0x20 SWAP1 POP PUSH1 0x1F DUP4 GT PUSH1 0x1 DUP2 EQ PUSH2 0x2578 JUMPI PUSH0 DUP5 ISZERO PUSH2 0x2566 JUMPI DUP3 DUP8 ADD MLOAD SWAP1 POP JUMPDEST PUSH2 0x2570 DUP6 DUP3 PUSH2 0x24F5 JUMP JUMPDEST DUP7 SSTORE POP PUSH2 0x25D7 JUMP JUMPDEST PUSH1 0x1F NOT DUP5 AND PUSH2 0x2586 DUP7 PUSH2 0x2370 JUMP JUMPDEST PUSH0 JUMPDEST DUP3 DUP2 LT ISZERO PUSH2 0x25AD JUMPI DUP5 DUP10 ADD MLOAD DUP3 SSTORE PUSH1 0x1 DUP3 ADD SWAP2 POP PUSH1 0x20 DUP6 ADD SWAP5 POP PUSH1 0x20 DUP2 ADD SWAP1 POP PUSH2 0x2588 JUMP JUMPDEST DUP7 DUP4 LT ISZERO PUSH2 0x25CA JUMPI DUP5 DUP10 ADD MLOAD PUSH2 0x25C6 PUSH1 0x1F DUP10 AND DUP3 PUSH2 0x24D9 JUMP JUMPDEST DUP4 SSTORE POP JUMPDEST PUSH1 0x1 PUSH1 0x2 DUP9 MUL ADD DUP9 SSTORE POP POP POP JUMPDEST POP POP POP POP POP POP JUMP JUMPDEST PUSH32 0x496E766573746D656E742070726F706F73616C73206D75737420757365205765 PUSH0 DUP3 ADD MSTORE PUSH32 0x6967687465642071756F72756D00000000000000000000000000000000000000 PUSH1 0x20 DUP3 ADD MSTORE POP JUMP JUMPDEST PUSH0 PUSH2 0x2639 PUSH1 0x2D DUP4 PUSH2 0x1FA1 JUMP JUMPDEST SWAP2 POP PUSH2 0x2644 DUP3 PUSH2 0x25DF JUMP JUMPDEST PUSH1 0x40 DUP3 ADD SWAP1 POP SWAP2 SWAP1 POP JUMP JUMPDEST PUSH0 PUSH1 0x20 DUP3 ADD SWAP1 POP DUP2 DUP2 SUB PUSH0 DUP4 ADD MSTORE PUSH2 0x2666 DUP2 PUSH2 0x262D JUMP JUMPDEST SWAP1 POP SWAP2 SWAP1 POP JUMP JUMPDEST PUSH32 0x4F6E6C7920696E766573746D656E742070726F706F73616C732063616E207573 PUSH0 DUP3 ADD MSTORE PUSH32 0x652057656967687465642071756F72756D000000000000000000000000000000 PUSH1 0x20 DUP3 ADD MSTORE POP JUMP JUMPDEST PUSH0 PUSH2 0x26C7 PUSH1 0x31 DUP4 PUSH2 0x1FA1 JUMP JUMPDEST SWAP2 POP PUSH2 0x26D2 DUP3 PUSH2 0x266D JUMP JUMPDEST PUSH1 0x40 DUP3 ADD SWAP1 POP SWAP2 SWAP1 POP JUMP JUMPDEST PUSH0 PUSH1 0x20 DUP3 ADD SWAP1 POP DUP2 DUP2 SUB PUSH0 DUP4 ADD MSTORE PUSH2 0x26F4 DUP2 PUSH2 0x26BB JUMP JUMPDEST SWAP1 POP SWAP2 SWAP1 POP JUMP JUMPDEST PUSH0 PUSH2 0x2705 DUP3 PUSH2 0x1B8E JUMP JUMPDEST SWAP2 POP PUSH2 0x2710 DUP4 PUSH2 0x1B8E JUMP JUMPDEST SWAP3 POP DUP3 DUP3 MUL PUSH2 0x271E DUP2 PUSH2 0x1B8E JUMP JUMPDEST SWAP2 POP DUP3 DUP3 DIV DUP5 EQ DUP4 ISZERO OR PUSH2 0x2735 JUMPI PUSH2 0x2734 PUSH2 0x229F JUMP JUMPDEST JUMPDEST POP SWAP3 SWAP2 POP POP JUMP JUMPDEST PUSH0 PUSH2 0x2746 DUP3 PUSH2 0x1B8E JUMP JUMPDEST SWAP2 POP PUSH2 0x2751 DUP4 PUSH2 0x1B8E JUMP JUMPDEST SWAP3 POP DUP3 DUP3 ADD SWAP1 POP DUP1 DUP3 GT ISZERO PUSH2 0x2769 JUMPI PUSH2 0x2768 PUSH2 0x229F JUMP JUMPDEST JUMPDEST SWAP3 SWAP2 POP POP JUMP JUMPDEST PUSH0 PUSH1 0x40 DUP3 ADD SWAP1 POP PUSH2 0x2782 PUSH0 DUP4 ADD DUP6 PUSH2 0x205B JUMP JUMPDEST DUP2 DUP2 SUB PUSH1 0x20 DUP4 ADD MSTORE PUSH2 0x2794 DUP2 DUP5 PUSH2 0x1FBF JUMP JUMPDEST SWAP1 POP SWAP4 SWAP3 POP POP POP JUMP JUMPDEST PUSH32 0x4F6E6C792070726F706F7365722063616E2064656C6574650000000000000000 PUSH0 DUP3 ADD MSTORE POP JUMP JUMPDEST PUSH0 PUSH2 0x27D1 PUSH1 0x18 DUP4 PUSH2 0x1FA1 JUMP JUMPDEST SWAP2 POP PUSH2 0x27DC DUP3 PUSH2 0x279D JUMP JUMPDEST PUSH1 0x20 DUP3 ADD SWAP1 POP SWAP2 SWAP1 POP JUMP JUMPDEST PUSH0 PUSH1 0x20 DUP3 ADD SWAP1 POP DUP2 DUP2 SUB PUSH0 DUP4 ADD MSTORE PUSH2 0x27FE DUP2 PUSH2 0x27C5 JUMP JUMPDEST SWAP1 POP SWAP2 SWAP1 POP JUMP JUMPDEST PUSH32 0x566F74696E6720616C726561647920656E646564000000000000000000000000 PUSH0 DUP3 ADD MSTORE POP JUMP JUMPDEST PUSH0 PUSH2 0x2839 PUSH1 0x14 DUP4 PUSH2 0x1FA1 JUMP JUMPDEST SWAP2 POP PUSH2 0x2844 DUP3 PUSH2 0x2805 JUMP JUMPDEST PUSH1 0x20 DUP3 ADD SWAP1 POP SWAP2 SWAP1 POP JUMP JUMPDEST PUSH0 PUSH1 0x20 DUP3 ADD SWAP1 POP DUP2 DUP2 SUB PUSH0 DUP4 ADD MSTORE PUSH2 0x2866 DUP2 PUSH2 0x282D JUMP JUMPDEST SWAP1 POP SWAP2 SWAP1 POP JUMP JUMPDEST PUSH32 0x416C7265616479206578656375746564206F722064656C657465642070726F70 PUSH0 DUP3 ADD MSTORE PUSH32 0x6F73616C00000000000000000000000000000000000000000000000000000000 PUSH1 0x20 DUP3 ADD MSTORE POP JUMP JUMPDEST PUSH0 PUSH2 0x28C7 PUSH1 0x24 DUP4 PUSH2 0x1FA1 JUMP JUMPDEST SWAP2 POP PUSH2 0x28D2 DUP3 PUSH2 0x286D JUMP JUMPDEST PUSH1 0x40 DUP3 ADD SWAP1 POP SWAP2 SWAP1 POP JUMP JUMPDEST PUSH0 PUSH1 0x20 DUP3 ADD SWAP1 POP DUP2 DUP2 SUB PUSH0 DUP4 ADD MSTORE PUSH2 0x28F4 DUP2 PUSH2 0x28BB JUMP JUMPDEST SWAP1 POP SWAP2 SWAP1 POP JUMP JUMPDEST PUSH32 0x4E487B7100000000000000000000000000000000000000000000000000000000 PUSH0 MSTORE PUSH1 0x32 PUSH1 0x4 MSTORE PUSH1 0x24 PUSH0 REVERT JUMPDEST PUSH0 PUSH1 0x40 DUP3 ADD SWAP1 POP PUSH2 0x293B PUSH0 DUP4 ADD DUP6 PUSH2 0x1F6F JUMP JUMPDEST PUSH2 0x2948 PUSH1 0x20 DUP4 ADD DUP5 PUSH2 0x1C8C JUMP JUMPDEST SWAP4 SWAP3 POP POP POP JUMP JUMPDEST PUSH0 DUP2 MLOAD SWAP1 POP PUSH2 0x295D DUP2 PUSH2 0x20ED JUMP JUMPDEST SWAP3 SWAP2 POP POP JUMP JUMPDEST PUSH0 PUSH1 0x20 DUP3 DUP5 SUB SLT ISZERO PUSH2 0x2978 JUMPI PUSH2 0x2977 PUSH2 0x1B86 JUMP JUMPDEST JUMPDEST PUSH0 PUSH2 0x2985 DUP5 DUP3 DUP6 ADD PUSH2 0x294F JUMP JUMPDEST SWAP2 POP POP SWAP3 SWAP2 POP POP JUMP JUMPDEST PUSH32 0x546F6B656E20726566756E64206661696C656400000000000000000000000000 PUSH0 DUP3 ADD MSTORE POP JUMP JUMPDEST PUSH0 PUSH2 0x29C2 PUSH1 0x13 DUP4 PUSH2 0x1FA1 JUMP JUMPDEST SWAP2 POP PUSH2 0x29CD DUP3 PUSH2 0x298E JUMP JUMPDEST PUSH1 0x20 DUP3 ADD SWAP1 POP SWAP2 SWAP1 POP JUMP JUMPDEST PUSH0 PUSH1 0x20 DUP3 ADD SWAP1 POP DUP2 DUP2 SUB PUSH0 DUP4 ADD MSTORE PUSH2 0x29EF DUP2 PUSH2 0x29B6 JUMP JUMPDEST SWAP1 POP SWAP2 SWAP1 POP JUMP JUMPDEST PUSH0 PUSH2 0x2A00 DUP3 PUSH2 0x1B8E JUMP JUMPDEST SWAP2 POP PUSH2 0x2A0B DUP4 PUSH2 0x1B8E JUMP JUMPDEST SWAP3 POP DUP3 DUP3 SUB SWAP1 POP DUP2 DUP2 GT ISZERO PUSH2 0x2A23 JUMPI PUSH2 0x2A22 PUSH2 0x229F JUMP JUMPDEST JUMPDEST SWAP3 SWAP2 POP POP JUMP JUMPDEST PUSH32 0x4E487B7100000000000000000000000000000000000000000000000000000000 PUSH0 MSTORE PUSH1 0x12 PUSH1 0x4 MSTORE PUSH1 0x24 PUSH0 REVERT JUMPDEST PUSH0 PUSH2 0x2A60 DUP3 PUSH2 0x1B8E JUMP JUMPDEST SWAP2 POP PUSH2 0x2A6B DUP4 PUSH2 0x1B8E JUMP JUMPDEST SWAP3 POP DUP3 PUSH2 0x2A7B JUMPI PUSH2 0x2A7A PUSH2 0x2A29 JUMP JUMPDEST JUMPDEST DUP3 DUP3 DIV SWAP1 POP SWAP3 SWAP2 POP POP JUMP JUMPDEST PUSH0 PUSH2 0x2A90 DUP3 PUSH2 0x1B8E JUMP JUMPDEST SWAP2 POP PUSH2 0x2A9B DUP4 PUSH2 0x1B8E JUMP JUMPDEST SWAP3 POP DUP3 PUSH2 0x2AAB JUMPI PUSH2 0x2AAA PUSH2 0x2A29 JUMP JUMPDEST JUMPDEST DUP3 DUP3 MOD SWAP1 POP SWAP3 SWAP2 POP POP JUMP JUMPDEST PUSH32 0x566F74696E67206E6F7420737461727465640000000000000000000000000000 PUSH0 DUP3 ADD MSTORE POP JUMP JUMPDEST PUSH0 PUSH2 0x2AEA PUSH1 0x12 DUP4 PUSH2 0x1FA1 JUMP JUMPDEST SWAP2 POP PUSH2 0x2AF5 DUP3 PUSH2 0x2AB6 JUMP JUMPDEST PUSH1 0x20 DUP3 ADD SWAP1 POP SWAP2 SWAP1 POP JUMP JUMPDEST PUSH0 PUSH1 0x20 DUP3 ADD SWAP1 POP DUP2 DUP2 SUB PUSH0 DUP4 ADD MSTORE PUSH2 0x2B17 DUP2 PUSH2 0x2ADE JUMP JUMPDEST SWAP1 POP SWAP2 SWAP1 POP JUMP JUMPDEST PUSH32 0x566F74696E6720656E6465640000000000000000000000000000000000000000 PUSH0 DUP3 ADD MSTORE POP JUMP JUMPDEST PUSH0 PUSH2 0x2B52 PUSH1 0xC DUP4 PUSH2 0x1FA1 JUMP JUMPDEST SWAP2 POP PUSH2 0x2B5D DUP3 PUSH2 0x2B1E JUMP JUMPDEST PUSH1 0x20 DUP3 ADD SWAP1 POP SWAP2 SWAP1 POP JUMP JUMPDEST PUSH0 PUSH1 0x20 DUP3 ADD SWAP1 POP DUP2 DUP2 SUB PUSH0 DUP4 ADD MSTORE PUSH2 0x2B7F DUP2 PUSH2 0x2B46 JUMP JUMPDEST SWAP1 POP SWAP2 SWAP1 POP JUMP JUMPDEST PUSH32 0x416C726561647920766F74656400000000000000000000000000000000000000 PUSH0 DUP3 ADD MSTORE POP JUMP JUMPDEST PUSH0 PUSH2 0x2BBA PUSH1 0xD DUP4 PUSH2 0x1FA1 JUMP JUMPDEST SWAP2 POP PUSH2 0x2BC5 DUP3 PUSH2 0x2B86 JUMP JUMPDEST PUSH1 0x20 DUP3 ADD SWAP1 POP SWAP2 SWAP1 POP JUMP JUMPDEST PUSH0 PUSH1 0x20 DUP3 ADD SWAP1 POP DUP2 DUP2 SUB PUSH0 DUP4 ADD MSTORE PUSH2 0x2BE7 DUP2 PUSH2 0x2BAE JUMP JUMPDEST SWAP1 POP SWAP2 SWAP1 POP JUMP JUMPDEST PUSH32 0x4D75737420766F7465207769746820746F6B656E730000000000000000000000 PUSH0 DUP3 ADD MSTORE POP JUMP JUMPDEST PUSH0 PUSH2 0x2C22 PUSH1 0x15 DUP4 PUSH2 0x1FA1 JUMP JUMPDEST SWAP2 POP PUSH2 0x2C2D DUP3 PUSH2 0x2BEE JUMP JUMPDEST PUSH1 0x20 DUP3 ADD SWAP1 POP SWAP2 SWAP1 POP JUMP JUMPDEST PUSH0 PUSH1 0x20 DUP3 ADD SWAP1 POP DUP2 DUP2 SUB PUSH0 DUP4 ADD MSTORE PUSH2 0x2C4F DUP2 PUSH2 0x2C16 JUMP JUMPDEST SWAP1 POP SWAP2 SWAP1 POP JUMP JUMPDEST PUSH32 0x4D696E696D756D203320746F6B656E732050524F464920726571756972656420 PUSH0 DUP3 ADD MSTORE POP JUMP JUMPDEST PUSH0 PUSH2 0x2C8A PUSH1 0x20 DUP4 PUSH2 0x1FA1 JUMP JUMPDEST SWAP2 POP PUSH2 0x2C95 DUP3 PUSH2 0x2C56 JUMP JUMPDEST PUSH1 0x20 DUP3 ADD SWAP1 POP SWAP2 SWAP1 POP JUMP JUMPDEST PUSH0 PUSH1 0x20 DUP3 ADD SWAP1 POP DUP2 DUP2 SUB PUSH0 DUP4 ADD MSTORE PUSH2 0x2CB7 DUP2 PUSH2 0x2C7E JUMP JUMPDEST SWAP1 POP SWAP2 SWAP1 POP JUMP JUMPDEST PUSH0 PUSH1 0x60 DUP3 ADD SWAP1 POP PUSH2 0x2CD1 PUSH0 DUP4 ADD DUP7 PUSH2 0x1F6F JUMP JUMPDEST PUSH2 0x2CDE PUSH1 0x20 DUP4 ADD DUP6 PUSH2 0x1F6F JUMP JUMPDEST PUSH2 0x2CEB PUSH1 0x40 DUP4 ADD DUP5 PUSH2 0x1C8C JUMP JUMPDEST SWAP5 SWAP4 POP POP POP POP JUMP JUMPDEST PUSH32 0x4D696E696D756D203620746F6B656E732050524F464920726571756972656400 PUSH0 DUP3 ADD MSTORE POP JUMP JUMPDEST PUSH0 PUSH2 0x2D27 PUSH1 0x1F DUP4 PUSH2 0x1FA1 JUMP JUMPDEST SWAP2 POP PUSH2 0x2D32 DUP3 PUSH2 0x2CF3 JUMP JUMPDEST PUSH1 0x20 DUP3 ADD SWAP1 POP SWAP2 SWAP1 POP JUMP JUMPDEST PUSH0 PUSH1 0x20 DUP3 ADD SWAP1 POP DUP2 DUP2 SUB PUSH0 DUP4 ADD MSTORE PUSH2 0x2D54 DUP2 PUSH2 0x2D1B JUMP JUMPDEST SWAP1 POP SWAP2 SWAP1 POP JUMP JUMPDEST PUSH0 PUSH1 0x40 DUP3 ADD SWAP1 POP PUSH2 0x2D6E PUSH0 DUP4 ADD DUP6 PUSH2 0x1C64 JUMP JUMPDEST PUSH2 0x2D7B PUSH1 0x20 DUP4 ADD DUP5 PUSH2 0x1C8C JUMP JUMPDEST SWAP4 SWAP3 POP POP POP JUMP JUMPDEST PUSH32 0x566F74696E67206E6F7420656E64656400000000000000000000000000000000 PUSH0 DUP3 ADD MSTORE POP JUMP JUMPDEST PUSH0 PUSH2 0x2DB6 PUSH1 0x10 DUP4 PUSH2 0x1FA1 JUMP JUMPDEST SWAP2 POP PUSH2 0x2DC1 DUP3 PUSH2 0x2D82 JUMP JUMPDEST PUSH1 0x20 DUP3 ADD SWAP1 POP SWAP2 SWAP1 POP JUMP JUMPDEST PUSH0 PUSH1 0x20 DUP3 ADD SWAP1 POP DUP2 DUP2 SUB PUSH0 DUP4 ADD MSTORE PUSH2 0x2DE3 DUP2 PUSH2 0x2DAA JUMP JUMPDEST SWAP1 POP SWAP2 SWAP1 POP JUMP JUMPDEST PUSH32 0x416C726561647920657865637574656400000000000000000000000000000000 PUSH0 DUP3 ADD MSTORE POP JUMP JUMPDEST PUSH0 PUSH2 0x2E1E PUSH1 0x10 DUP4 PUSH2 0x1FA1 JUMP JUMPDEST SWAP2 POP PUSH2 0x2E29 DUP3 PUSH2 0x2DEA JUMP JUMPDEST PUSH1 0x20 DUP3 ADD SWAP1 POP SWAP2 SWAP1 POP JUMP JUMPDEST PUSH0 PUSH1 0x20 DUP3 ADD SWAP1 POP DUP2 DUP2 SUB PUSH0 DUP4 ADD MSTORE PUSH2 0x2E4B DUP2 PUSH2 0x2E12 JUMP JUMPDEST SWAP1 POP SWAP2 SWAP1 POP JUMP JUMPDEST PUSH32 0x50726F706F73616C206661696C65642028666F72566F746573203E3D20616761 PUSH0 DUP3 ADD MSTORE PUSH32 0x696E7374566F7465732900000000000000000000000000000000000000000000 PUSH1 0x20 DUP3 ADD MSTORE POP JUMP JUMPDEST PUSH0 PUSH2 0x2EAC PUSH1 0x2A DUP4 PUSH2 0x1FA1 JUMP JUMPDEST SWAP2 POP PUSH2 0x2EB7 DUP3 PUSH2 0x2E52 JUMP JUMPDEST PUSH1 0x40 DUP3 ADD SWAP1 POP SWAP2 SWAP1 POP JUMP JUMPDEST PUSH0 PUSH1 0x20 DUP3 ADD SWAP1 POP DUP2 DUP2 SUB PUSH0 DUP4 ADD MSTORE PUSH2 0x2ED9 DUP2 PUSH2 0x2EA0 JUMP JUMPDEST SWAP1 POP SWAP2 SWAP1 POP JUMP JUMPDEST PUSH32 0x51756F72756D206E6F7420726561636865640000000000000000000000000000 PUSH0 DUP3 ADD MSTORE POP JUMP JUMPDEST PUSH0 PUSH2 0x2F14 PUSH1 0x12 DUP4 PUSH2 0x1FA1 JUMP JUMPDEST SWAP2 POP PUSH2 0x2F1F DUP3 PUSH2 0x2EE0 JUMP JUMPDEST PUSH1 0x20 DUP3 ADD SWAP1 POP SWAP2 SWAP1 POP JUMP JUMPDEST PUSH0 PUSH1 0x20 DUP3 ADD SWAP1 POP DUP2 DUP2 SUB PUSH0 DUP4 ADD MSTORE PUSH2 0x2F41 DUP2 PUSH2 0x2F08 JUMP JUMPDEST SWAP1 POP SWAP2 SWAP1 POP JUMP JUMPDEST PUSH32 0x496E76616C696420746172676574000000000000000000000000000000000000 PUSH0 DUP3 ADD MSTORE POP JUMP JUMPDEST PUSH0 PUSH2 0x2F7C PUSH1 0xE DUP4 PUSH2 0x1FA1 JUMP JUMPDEST SWAP2 POP PUSH2 0x2F87 DUP3 PUSH2 0x2F48 JUMP JUMPDEST PUSH1 0x20 DUP3 ADD SWAP1 POP SWAP2 SWAP1 POP JUMP JUMPDEST PUSH0 PUSH1 0x20 DUP3 ADD SWAP1 POP DUP2 DUP2 SUB PUSH0 DUP4 ADD MSTORE PUSH2 0x2FA9 DUP2 PUSH2 0x2F70 JUMP JUMPDEST SWAP1 POP SWAP2 SWAP1 POP JUMP JUMPDEST PUSH32 0x496E76616C696420616D6F756E74000000000000000000000000000000000000 PUSH0 DUP3 ADD MSTORE POP JUMP JUMPDEST PUSH0 PUSH2 0x2FE4 PUSH1 0xE DUP4 PUSH2 0x1FA1 JUMP JUMPDEST SWAP2 POP PUSH2 0x2FEF DUP3 PUSH2 0x2FB0 JUMP JUMPDEST PUSH1 0x20 DUP3 ADD SWAP1 POP SWAP2 SWAP1 POP JUMP JUMPDEST PUSH0 PUSH1 0x20 DUP3 ADD SWAP1 POP DUP2 DUP2 SUB PUSH0 DUP4 ADD MSTORE PUSH2 0x3011 DUP2 PUSH2 0x2FD8 JUMP JUMPDEST SWAP1 POP SWAP2 SWAP1 POP JUMP JUMPDEST PUSH0 DUP2 SWAP1 POP SWAP3 SWAP2 POP POP JUMP JUMPDEST POP JUMP JUMPDEST PUSH0 PUSH2 0x3030 PUSH0 DUP4 PUSH2 0x3018 JUMP JUMPDEST SWAP2 POP PUSH2 0x303B DUP3 PUSH2 0x3022 JUMP JUMPDEST PUSH0 DUP3 ADD SWAP1 POP SWAP2 SWAP1 POP JUMP JUMPDEST PUSH0 PUSH2 0x304F DUP3 PUSH2 0x3025 JUMP JUMPDEST SWAP2 POP DUP2 SWAP1 POP SWAP2 SWAP1 POP JUMP JUMPDEST PUSH32 0x455448207472616E73666572206661696C656400000000000000000000000000 PUSH0 DUP3 ADD MSTORE POP JUMP JUMPDEST PUSH0 PUSH2 0x308D PUSH1 0x13 DUP4 PUSH2 0x1FA1 JUMP JUMPDEST SWAP2 POP PUSH2 0x3098 DUP3 PUSH2 0x3059 JUMP JUMPDEST PUSH1 0x20 DUP3 ADD SWAP1 POP SWAP2 SWAP1 POP JUMP JUMPDEST PUSH0 PUSH1 0x20 DUP3 ADD SWAP1 POP DUP2 DUP2 SUB PUSH0 DUP4 ADD MSTORE PUSH2 0x30BA DUP2 PUSH2 0x3081 JUMP JUMPDEST SWAP1 POP SWAP2 SWAP1 POP JUMP JUMPDEST PUSH32 0x496E76616C6964206D656D626572206164647265737300000000000000000000 PUSH0 DUP3 ADD MSTORE POP JUMP JUMPDEST PUSH0 PUSH2 0x30F5 PUSH1 0x16 DUP4 PUSH2 0x1FA1 JUMP JUMPDEST SWAP2 POP PUSH2 0x3100 DUP3 PUSH2 0x30C1 JUMP JUMPDEST PUSH1 0x20 DUP3 ADD SWAP1 POP SWAP2 SWAP1 POP JUMP JUMPDEST PUSH0 PUSH1 0x20 DUP3 ADD SWAP1 POP DUP2 DUP2 SUB PUSH0 DUP4 ADD MSTORE PUSH2 0x3122 DUP2 PUSH2 0x30E9 JUMP JUMPDEST SWAP1 POP SWAP2 SWAP1 POP JUMP INVALID LOG2 PUSH5 0x6970667358 0x22 SLT KECCAK256 0xA9 DUP6 0xCD PUSH21 0x4AD4E3B139C81F958C954DD093BAF1DF7CFB3C5C0D 0xCC PUSH0 0xC6 DUP5 0xE2 0xC2 SWAP15 PUSH5 0x736F6C6343 STOP ADDMOD 0x1E STOP CALLER "
		},
		"gasEstimates": {
			"creation": {
				"codeDepositCost": "2527800",
				"executionCost": "infinite",
				"totalCost": "infinite"
			},
			"external": {
				"createProposal(string,uint8,uint8,address,uint256,uint256)": "infinite",
				"daoMembers(address)": "2922",
				"deleteProposal(uint256)": "infinite",
				"execute(uint256)": "infinite",
				"getProposal(uint256)": "infinite",
				"hasVoted(uint256,address)": "3123",
				"proposalCount()": "2491",
				"proposalVoters(uint256,uint256)": "infinite",
				"vote(uint256,bool,uint256)": "infinite",
				"voterAmount(uint256,address)": "infinite"
			},
			"internal": {
				"_executeAddMember(struct TokenWeightedGovernor.Proposal storage pointer)": "infinite",
				"_executeInvestment(struct TokenWeightedGovernor.Proposal storage pointer)": "infinite",
				"_executeManageToken(struct TokenWeightedGovernor.Proposal storage pointer)": "11",
				"_executeManageWrapToken(struct TokenWeightedGovernor.Proposal storage pointer)": "11",
				"_executeRemoveMember(struct TokenWeightedGovernor.Proposal storage pointer)": "infinite",
				"checkQuorum(uint256)": "infinite"
			}
		},
		"methodIdentifiers": {
			"createProposal(string,uint8,uint8,address,uint256,uint256)": "7ec94625",
			"daoMembers(address)": "959068ea",
			"deleteProposal(uint256)": "8259d553",
			"execute(uint256)": "fe0d94c1",
			"getProposal(uint256)": "c7f758a8",
			"hasVoted(uint256,address)": "43859632",
			"proposalCount()": "da35c664",
			"proposalVoters(uint256,uint256)": "ab89437c",
			"vote(uint256,bool,uint256)": "d46a5d7e",
			"voterAmount(uint256,address)": "6e5e13d2"
		}
	},
	"abi": [
		{
			"inputs": [
				{
					"internalType": "address",
					"name": "_systemToken",
					"type": "address"
				},
				{
					"internalType": "address",
					"name": "_wrapToken",
					"type": "address"
				},
				{
					"internalType": "address[]",
					"name": "_initialMembers",
					"type": "address[]"
				}
			],
			"stateMutability": "nonpayable",
			"type": "constructor"
		},
		{
			"anonymous": false,
			"inputs": [
				{
					"indexed": true,
					"internalType": "uint256",
					"name": "proposalId",
					"type": "uint256"
				},
				{
					"indexed": false,
					"internalType": "enum TokenWeightedGovernor.ProposalType",
					"name": "proposalType",
					"type": "uint8"
				},
				{
					"indexed": false,
					"internalType": "string",
					"name": "description",
					"type": "string"
				}
			],
			"name": "ProposalCreated",
			"type": "event"
		},
		{
			"anonymous": false,
			"inputs": [
				{
					"indexed": true,
					"internalType": "uint256",
					"name": "proposalId",
					"type": "uint256"
				}
			],
			"name": "ProposalExecuted",
			"type": "event"
		},
		{
			"anonymous": false,
			"inputs": [
				{
					"indexed": true,
					"internalType": "address",
					"name": "voter",
					"type": "address"
				},
				{
					"indexed": true,
					"internalType": "uint256",
					"name": "proposalId",
					"type": "uint256"
				},
				{
					"indexed": false,
					"internalType": "bool",
					"name": "support",
					"type": "bool"
				},
				{
					"indexed": false,
					"internalType": "uint256",
					"name": "amount",
					"type": "uint256"
				}
			],
			"name": "VoteCast",
			"type": "event"
		},
		{
			"inputs": [
				{
					"internalType": "string",
					"name": "_description",
					"type": "string"
				},
				{
					"internalType": "enum TokenWeightedGovernor.ProposalType",
					"name": "_proposalType",
					"type": "uint8"
				},
				{
					"internalType": "enum TokenWeightedGovernor.QuorumMechanism",
					"name": "_quorumType",
					"type": "uint8"
				},
				{
					"internalType": "address",
					"name": "_target",
					"type": "address"
				},
				{
					"internalType": "uint256",
					"name": "_durationMinutes",
					"type": "uint256"
				},
				{
					"internalType": "uint256",
					"name": "_value",
					"type": "uint256"
				}
			],
			"name": "createProposal",
			"outputs": [
				{
					"internalType": "uint256",
					"name": "",
					"type": "uint256"
				}
			],
			"stateMutability": "nonpayable",
			"type": "function"
		},
		{
			"inputs": [
				{
					"internalType": "address",
					"name": "",
					"type": "address"
				}
			],
			"name": "daoMembers",
			"outputs": [
				{
					"internalType": "bool",
					"name": "",
					"type": "bool"
				}
			],
			"stateMutability": "view",
			"type": "function"
		},
		{
			"inputs": [
				{
					"internalType": "uint256",
					"name": "_proposalId",
					"type": "uint256"
				}
			],
			"name": "deleteProposal",
			"outputs": [],
			"stateMutability": "nonpayable",
			"type": "function"
		},
		{
			"inputs": [
				{
					"internalType": "uint256",
					"name": "_proposalId",
					"type": "uint256"
				}
			],
			"name": "execute",
			"outputs": [],
			"stateMutability": "payable",
			"type": "function"
		},
		{
			"inputs": [
				{
					"internalType": "uint256",
					"name": "_proposalId",
					"type": "uint256"
				}
			],
			"name": "getProposal",
			"outputs": [
				{
					"internalType": "string",
					"name": "description",
					"type": "string"
				},
				{
					"internalType": "uint256",
					"name": "needVotes",
					"type": "uint256"
				},
				{
					"internalType": "uint256",
					"name": "forVotes",
					"type": "uint256"
				},
				{
					"internalType": "uint256",
					"name": "againstVotes",
					"type": "uint256"
				},
				{
					"internalType": "uint256",
					"name": "remainingSeconds",
					"type": "uint256"
				},
				{
					"internalType": "uint256",
					"name": "remainingMinutes",
					"type": "uint256"
				},
				{
					"internalType": "enum TokenWeightedGovernor.ProposalType",
					"name": "proposalType",
					"type": "uint8"
				},
				{
					"internalType": "bool",
					"name": "executed",
					"type": "bool"
				}
			],
			"stateMutability": "view",
			"type": "function"
		},
		{
			"inputs": [
				{
					"internalType": "uint256",
					"name": "_proposalId",
					"type": "uint256"
				},
				{
					"internalType": "address",
					"name": "_voter",
					"type": "address"
				}
			],
			"name": "hasVoted",
			"outputs": [
				{
					"internalType": "bool",
					"name": "",
					"type": "bool"
				}
			],
			"stateMutability": "view",
			"type": "function"
		},
		{
			"inputs": [],
			"name": "proposalCount",
			"outputs": [
				{
					"internalType": "uint256",
					"name": "",
					"type": "uint256"
				}
			],
			"stateMutability": "view",
			"type": "function"
		},
		{
			"inputs": [
				{
					"internalType": "uint256",
					"name": "",
					"type": "uint256"
				},
				{
					"internalType": "uint256",
					"name": "",
					"type": "uint256"
				}
			],
			"name": "proposalVoters",
			"outputs": [
				{
					"internalType": "address",
					"name": "",
					"type": "address"
				}
			],
			"stateMutability": "view",
			"type": "function"
		},
		{
			"inputs": [
				{
					"internalType": "uint256",
					"name": "_proposalId",
					"type": "uint256"
				},
				{
					"internalType": "bool",
					"name": "_support",
					"type": "bool"
				},
				{
					"internalType": "uint256",
					"name": "_value",
					"type": "uint256"
				}
			],
			"name": "vote",
			"outputs": [],
			"stateMutability": "nonpayable",
			"type": "function"
		},
		{
			"inputs": [
				{
					"internalType": "uint256",
					"name": "",
					"type": "uint256"
				},
				{
					"internalType": "address",
					"name": "",
					"type": "address"
				}
			],
			"name": "voterAmount",
			"outputs": [
				{
					"internalType": "uint256",
					"name": "",
					"type": "uint256"
				}
			],
			"stateMutability": "view",
			"type": "function"
		}
	]
}